{
  "abi": [
    {
      "inputs": [],
      "stateMutability": "nonpayable",
      "type": "constructor"
    },
    {
      "anonymous": false,
      "inputs": [
        {
          "indexed": true,
          "internalType": "address",
          "name": "owner",
          "type": "address"
        },
        {
          "indexed": true,
          "internalType": "address",
          "name": "approved",
          "type": "address"
        },
        {
          "indexed": true,
          "internalType": "uint256",
          "name": "tokenId",
          "type": "uint256"
        }
      ],
      "name": "Approval",
      "type": "event"
    },
    {
      "anonymous": false,
      "inputs": [
        {
          "indexed": true,
          "internalType": "address",
          "name": "owner",
          "type": "address"
        },
        {
          "indexed": true,
          "internalType": "address",
          "name": "operator",
          "type": "address"
        },
        {
          "indexed": false,
          "internalType": "bool",
          "name": "approved",
          "type": "bool"
        }
      ],
      "name": "ApprovalForAll",
      "type": "event"
    },
    {
      "anonymous": false,
      "inputs": [
        {
          "indexed": true,
          "internalType": "address",
          "name": "from",
          "type": "address"
        },
        {
          "indexed": true,
          "internalType": "address",
          "name": "to",
          "type": "address"
        },
        {
          "indexed": true,
          "internalType": "uint256",
          "name": "tokenId",
          "type": "uint256"
        }
      ],
      "name": "Transfer",
      "type": "event"
    },
    {
      "inputs": [
        {
          "internalType": "address",
          "name": "",
          "type": "address"
        }
      ],
      "name": "AvatarClaimed",
      "outputs": [
        {
          "internalType": "bool",
          "name": "",
          "type": "bool"
        }
      ],
      "stateMutability": "view",
      "type": "function"
    },
    {
      "inputs": [
        {
          "internalType": "address",
          "name": "to",
          "type": "address"
        },
        {
          "internalType": "uint256",
          "name": "tokenId",
          "type": "uint256"
        }
      ],
      "name": "approve",
      "outputs": [],
      "stateMutability": "nonpayable",
      "type": "function"
    },
    {
      "inputs": [
        {
          "internalType": "uint256",
          "name": "_tokenId",
          "type": "uint256"
        }
      ],
      "name": "avatarOwner",
      "outputs": [
        {
          "internalType": "address",
          "name": "",
          "type": "address"
        }
      ],
      "stateMutability": "view",
      "type": "function"
    },
    {
      "inputs": [
        {
          "internalType": "address",
          "name": "owner",
          "type": "address"
        }
      ],
      "name": "balanceOf",
      "outputs": [
        {
          "internalType": "uint256",
          "name": "",
          "type": "uint256"
        }
      ],
      "stateMutability": "view",
      "type": "function"
    },
    {
      "inputs": [],
      "name": "baseURI",
      "outputs": [
        {
          "internalType": "string",
          "name": "",
          "type": "string"
        }
      ],
      "stateMutability": "view",
      "type": "function"
    },
    {
      "inputs": [],
      "name": "createAvatar",
      "outputs": [],
      "stateMutability": "nonpayable",
      "type": "function"
    },
    {
      "inputs": [
        {
          "internalType": "uint256",
          "name": "tokenId",
          "type": "uint256"
        }
      ],
      "name": "getApproved",
      "outputs": [
        {
          "internalType": "address",
          "name": "",
          "type": "address"
        }
      ],
      "stateMutability": "view",
      "type": "function"
    },
    {
      "inputs": [
        {
          "internalType": "uint256",
          "name": "_tokenId",
          "type": "uint256"
        }
      ],
      "name": "getTokenURI",
      "outputs": [
        {
          "internalType": "string",
          "name": "",
          "type": "string"
        }
      ],
      "stateMutability": "view",
      "type": "function"
    },
    {
      "inputs": [
        {
          "internalType": "address",
          "name": "owner",
          "type": "address"
        },
        {
          "internalType": "address",
          "name": "operator",
          "type": "address"
        }
      ],
      "name": "isApprovedForAll",
      "outputs": [
        {
          "internalType": "bool",
          "name": "",
          "type": "bool"
        }
      ],
      "stateMutability": "view",
      "type": "function"
    },
    {
      "inputs": [],
      "name": "name",
      "outputs": [
        {
          "internalType": "string",
          "name": "",
          "type": "string"
        }
      ],
      "stateMutability": "view",
      "type": "function"
    },
    {
      "inputs": [
        {
          "internalType": "uint256",
          "name": "tokenId",
          "type": "uint256"
        }
      ],
      "name": "ownerOf",
      "outputs": [
        {
          "internalType": "address",
          "name": "",
          "type": "address"
        }
      ],
      "stateMutability": "view",
      "type": "function"
    },
    {
      "inputs": [
        {
          "internalType": "address",
          "name": "from",
          "type": "address"
        },
        {
          "internalType": "address",
          "name": "to",
          "type": "address"
        },
        {
          "internalType": "uint256",
          "name": "tokenId",
          "type": "uint256"
        }
      ],
      "name": "safeTransferFrom",
      "outputs": [],
      "stateMutability": "nonpayable",
      "type": "function"
    },
    {
      "inputs": [
        {
          "internalType": "address",
          "name": "from",
          "type": "address"
        },
        {
          "internalType": "address",
          "name": "to",
          "type": "address"
        },
        {
          "internalType": "uint256",
          "name": "tokenId",
          "type": "uint256"
        },
        {
          "internalType": "bytes",
          "name": "data",
          "type": "bytes"
        }
      ],
      "name": "safeTransferFrom",
      "outputs": [],
      "stateMutability": "nonpayable",
      "type": "function"
    },
    {
      "inputs": [
        {
          "internalType": "address",
          "name": "operator",
          "type": "address"
        },
        {
          "internalType": "bool",
          "name": "approved",
          "type": "bool"
        }
      ],
      "name": "setApprovalForAll",
      "outputs": [],
      "stateMutability": "nonpayable",
      "type": "function"
    },
    {
      "inputs": [
        {
          "internalType": "bytes4",
          "name": "interfaceId",
          "type": "bytes4"
        }
      ],
      "name": "supportsInterface",
      "outputs": [
        {
          "internalType": "bool",
          "name": "",
          "type": "bool"
        }
      ],
      "stateMutability": "view",
      "type": "function"
    },
    {
      "inputs": [],
      "name": "symbol",
      "outputs": [
        {
          "internalType": "string",
          "name": "",
          "type": "string"
        }
      ],
      "stateMutability": "view",
      "type": "function"
    },
    {
      "inputs": [
        {
          "internalType": "uint256",
          "name": "tokenId",
          "type": "uint256"
        }
      ],
      "name": "tokenURI",
      "outputs": [
        {
          "internalType": "string",
          "name": "",
          "type": "string"
        }
      ],
      "stateMutability": "view",
      "type": "function"
    },
    {
      "inputs": [
        {
          "internalType": "address",
          "name": "from",
          "type": "address"
        },
        {
          "internalType": "address",
          "name": "to",
          "type": "address"
        },
        {
          "internalType": "uint256",
          "name": "tokenId",
          "type": "uint256"
        }
      ],
      "name": "transferFrom",
      "outputs": [],
      "stateMutability": "nonpayable",
      "type": "function"
    },
    {
      "inputs": [],
      "name": "uriPrefix",
      "outputs": [
        {
          "internalType": "string",
          "name": "",
          "type": "string"
        }
      ],
      "stateMutability": "view",
      "type": "function"
    },
    {
      "inputs": [],
      "name": "uriSuffix",
      "outputs": [
        {
          "internalType": "string",
          "name": "",
          "type": "string"
        }
      ],
      "stateMutability": "view",
      "type": "function"
    }
  ],
  "bytecode": {
    "object": "0x60a0604052600060809081526007906200001a90826200017d565b506040805160208101909152600081526008906200003990826200017d565b50604080518082019091526005815264173539b7b760d91b60208201526009906200006590826200017d565b503480156200007357600080fd5b506040518060400160405280600681526020016520bb30ba30b960d11b8152506040518060400160405280600381526020016241564160e81b8152508160009081620000c091906200017d565b506001620000cf82826200017d565b50505062000249565b634e487b7160e01b600052604160045260246000fd5b600181811c908216806200010357607f821691505b6020821081036200012457634e487b7160e01b600052602260045260246000fd5b50919050565b601f8211156200017857600081815260208120601f850160051c81016020861015620001535750805b601f850160051c820191505b8181101562000174578281556001016200015f565b5050505b505050565b81516001600160401b03811115620001995762000199620000d8565b620001b181620001aa8454620000ee565b846200012a565b602080601f831160018114620001e95760008415620001d05750858301515b600019600386901b1c1916600185901b17855562000174565b600085815260208120601f198616915b828110156200021a57888601518255948401946001909101908401620001f9565b5085821015620002395787850151600019600388901b60f8161c191681555b5050505050600190811b01905550565b6118a380620002596000396000f3fe608060405234801561001057600080fd5b506004361061012c5760003560e01c806362b99ad4116100ad578063a22cb46511610071578063a22cb46514610256578063b88d4fde14610269578063c26854d21461027c578063c87b56dd1461029f578063e985e9c5146102b257600080fd5b806362b99ad41461020a5780636352211e146102125780636c0360eb1461022557806370a082311461022d57806395d89b411461024e57600080fd5b806323b872dd116100f457806323b872dd146101c15780633bb3a24d146101d457806342842e0e146101e75780635503a0e8146101fa5780635e5cd13a1461020257600080fd5b806301ffc9a71461013157806306fdde0314610159578063081812fc1461016e578063095ea7b31461019957806312ecf0af146101ae575b600080fd5b61014461013f3660046112bf565b6102c5565b60405190151581526020015b60405180910390f35b610161610317565b604051610150919061132c565b61018161017c36600461133f565b6103a9565b6040516001600160a01b039091168152602001610150565b6101ac6101a7366004611374565b6103d0565b005b6101816101bc36600461133f565b6104ea565b6101ac6101cf36600461139e565b610507565b6101616101e236600461133f565b610538565b6101ac6101f536600461139e565b610623565b61016161063e565b6101ac6106cc565b61016161074c565b61018161022036600461133f565b610759565b6101616107b9565b61024061023b3660046113da565b6107c6565b604051908152602001610150565b61016161084c565b6101ac6102643660046113f5565b61085b565b6101ac610277366004611447565b61086a565b61014461028a3660046113da565b60066020526000908152604090205460ff1681565b6101616102ad36600461133f565b6108a2565b6101446102c0366004611523565b6108ff565b60006001600160e01b031982166380ac58cd60e01b14806102f657506001600160e01b03198216635b5e139f60e01b145b8061031157506301ffc9a760e01b6001600160e01b03198316145b92915050565b60606000805461032690611556565b80601f016020809104026020016040519081016040528092919081815260200182805461035290611556565b801561039f5780601f106103745761010080835404028352916020019161039f565b820191906000526020600020905b81548152906001019060200180831161038257829003601f168201915b5050505050905090565b60006103b48261092d565b506000908152600460205260409020546001600160a01b031690565b60006103db82610759565b9050806001600160a01b0316836001600160a01b03160361044d5760405162461bcd60e51b815260206004820152602160248201527f4552433732313a20617070726f76616c20746f2063757272656e74206f776e656044820152603960f91b60648201526084015b60405180910390fd5b336001600160a01b0382161480610469575061046981336108ff565b6104db5760405162461bcd60e51b815260206004820152603d60248201527f4552433732313a20617070726f76652063616c6c6572206973206e6f7420746f60448201527f6b656e206f776e6572206f7220617070726f76656420666f7220616c6c0000006064820152608401610444565b6104e5838361098f565b505050565b6000818152600260205260408120546001600160a01b0316610311565b61051133826109fd565b61052d5760405162461bcd60e51b815260040161044490611590565b6104e5838383610a5c565b6000818152600260205260409020546060906001600160a01b03166105b75760405162461bcd60e51b815260206004820152602f60248201527f4552433732314d657461646174613a2055524920717565727920666f72206e6f60448201526e3732bc34b9ba32b73a103a37b5b2b760891b6064820152608401610444565b60006105ce60408051602081019091526000815290565b905060008151116105ee576040518060200160405280600081525061061c565b806105f884610bcd565b600960405160200161060c939291906115dd565b6040516020818303038152906040525b9392505050565b6104e58383836040518060200160405280600081525061086a565b6009805461064b90611556565b80601f016020809104026020016040519081016040528092919081815260200182805461067790611556565b80156106c45780601f10610699576101008083540402835291602001916106c4565b820191906000526020600020905b8154815290600101906020018083116106a757829003601f168201915b505050505081565b3360009081526006602052604090205460ff16156107255760405162461bcd60e51b8152602060048201526016602482015275105d985d185c88185b1c9958591e4818db185a5b595960521b6044820152606401610444565b610730336001610cce565b336000908152600660205260409020805460ff19166001179055565b6008805461064b90611556565b6000818152600260205260408120546001600160a01b0316806103115760405162461bcd60e51b8152602060048201526018602482015277115490cdcc8c4e881a5b9d985b1a59081d1bdad95b88125160421b6044820152606401610444565b6007805461064b90611556565b60006001600160a01b0382166108305760405162461bcd60e51b815260206004820152602960248201527f4552433732313a2061646472657373207a65726f206973206e6f7420612076616044820152683634b21037bbb732b960b91b6064820152608401610444565b506001600160a01b031660009081526003602052604090205490565b60606001805461032690611556565b610866338383610ce8565b5050565b61087433836109fd565b6108905760405162461bcd60e51b815260040161044490611590565b61089c84848484610db6565b50505050565b60606108ad8261092d565b60006108c460408051602081019091526000815290565b905060008151116108e4576040518060200160405280600081525061061c565b806108ee84610de9565b60405160200161060c9291906116a4565b6001600160a01b03918216600090815260056020908152604080832093909416825291909152205460ff1690565b6000818152600260205260409020546001600160a01b031661098c5760405162461bcd60e51b8152602060048201526018602482015277115490cdcc8c4e881a5b9d985b1a59081d1bdad95b88125160421b6044820152606401610444565b50565b600081815260046020526040902080546001600160a01b0319166001600160a01b03841690811790915581906109c482610759565b6001600160a01b03167f8c5be1e5ebec7d5bd14f71427d1e84f3dd0314c0f7b2291e5b200ac8c7c3b92560405160405180910390a45050565b600080610a0983610759565b9050806001600160a01b0316846001600160a01b03161480610a305750610a3081856108ff565b80610a545750836001600160a01b0316610a49846103a9565b6001600160a01b0316145b949350505050565b826001600160a01b0316610a6f82610759565b6001600160a01b031614610a955760405162461bcd60e51b8152600401610444906116d3565b6001600160a01b038216610af75760405162461bcd60e51b8152602060048201526024808201527f4552433732313a207472616e7366657220746f20746865207a65726f206164646044820152637265737360e01b6064820152608401610444565b610b048383836001610e7c565b826001600160a01b0316610b1782610759565b6001600160a01b031614610b3d5760405162461bcd60e51b8152600401610444906116d3565b600081815260046020908152604080832080546001600160a01b03199081169091556001600160a01b0387811680865260038552838620805460001901905590871680865283862080546001019055868652600290945282852080549092168417909155905184937fddf252ad1be2c89b69c2b068fc378daa952ba7f163c4a11628f55a4df523b3ef91a4505050565b606081600003610bf45750506040805180820190915260018152600360fc1b602082015290565b8160005b8115610c1e5780610c088161172e565b9150610c179050600a8361175d565b9150610bf8565b60008167ffffffffffffffff811115610c3957610c39611431565b6040519080825280601f01601f191660200182016040528015610c63576020820181803683370190505b5090505b8415610a5457610c78600183611771565b9150610c85600a86611784565b610c90906030611798565b60f81b818381518110610ca557610ca56117ab565b60200101906001600160f81b031916908160001a905350610cc7600a8661175d565b9450610c67565b610866828260405180602001604052806000815250610f04565b816001600160a01b0316836001600160a01b031603610d495760405162461bcd60e51b815260206004820152601960248201527f4552433732313a20617070726f766520746f2063616c6c6572000000000000006044820152606401610444565b6001600160a01b03838116600081815260056020908152604080832094871680845294825291829020805460ff191686151590811790915591519182527f17307eab39ab6107e8899845ad3d59bd9653f200f220920489ca2b5937696c31910160405180910390a3505050565b610dc1848484610a5c565b610dcd84848484610f37565b61089c5760405162461bcd60e51b8152600401610444906117c1565b60606000610df683611038565b600101905060008167ffffffffffffffff811115610e1657610e16611431565b6040519080825280601f01601f191660200182016040528015610e40576020820181803683370190505b5090508181016020015b600019016f181899199a1a9b1b9c1cb0b131b232b360811b600a86061a8153600a8504945084610e4a57509392505050565b600181111561089c576001600160a01b03841615610ec2576001600160a01b03841660009081526003602052604081208054839290610ebc908490611771565b90915550505b6001600160a01b0383161561089c576001600160a01b03831660009081526003602052604081208054839290610ef9908490611798565b909155505050505050565b610f0e8383611110565b610f1b6000848484610f37565b6104e55760405162461bcd60e51b8152600401610444906117c1565b60006001600160a01b0384163b1561102d57604051630a85bd0160e11b81526001600160a01b0385169063150b7a0290610f7b903390899088908890600401611813565b6020604051808303816000875af1925050508015610fb6575060408051601f3d908101601f19168201909252610fb391810190611850565b60015b611013573d808015610fe4576040519150601f19603f3d011682016040523d82523d6000602084013e610fe9565b606091505b50805160000361100b5760405162461bcd60e51b8152600401610444906117c1565b805181602001fd5b6001600160e01b031916630a85bd0160e11b149050610a54565b506001949350505050565b60008072184f03e93ff9f4daa797ed6e38ed64bf6a1f0160401b83106110775772184f03e93ff9f4daa797ed6e38ed64bf6a1f0160401b830492506040015b6d04ee2d6d415b85acef810000000083106110a3576d04ee2d6d415b85acef8100000000830492506020015b662386f26fc1000083106110c157662386f26fc10000830492506010015b6305f5e10083106110d9576305f5e100830492506008015b61271083106110ed57612710830492506004015b606483106110ff576064830492506002015b600a83106103115760010192915050565b6001600160a01b0382166111665760405162461bcd60e51b815260206004820181905260248201527f4552433732313a206d696e7420746f20746865207a65726f20616464726573736044820152606401610444565b6000818152600260205260409020546001600160a01b0316156111cb5760405162461bcd60e51b815260206004820152601c60248201527f4552433732313a20746f6b656e20616c7265616479206d696e746564000000006044820152606401610444565b6111d9600083836001610e7c565b6000818152600260205260409020546001600160a01b03161561123e5760405162461bcd60e51b815260206004820152601c60248201527f4552433732313a20746f6b656e20616c7265616479206d696e746564000000006044820152606401610444565b6001600160a01b038216600081815260036020908152604080832080546001019055848352600290915280822080546001600160a01b0319168417905551839291907fddf252ad1be2c89b69c2b068fc378daa952ba7f163c4a11628f55a4df523b3ef908290a45050565b6001600160e01b03198116811461098c57600080fd5b6000602082840312156112d157600080fd5b813561061c816112a9565b60005b838110156112f75781810151838201526020016112df565b50506000910152565b600081518084526113188160208601602086016112dc565b601f01601f19169290920160200192915050565b60208152600061061c6020830184611300565b60006020828403121561135157600080fd5b5035919050565b80356001600160a01b038116811461136f57600080fd5b919050565b6000806040838503121561138757600080fd5b61139083611358565b946020939093013593505050565b6000806000606084860312156113b357600080fd5b6113bc84611358565b92506113ca60208501611358565b9150604084013590509250925092565b6000602082840312156113ec57600080fd5b61061c82611358565b6000806040838503121561140857600080fd5b61141183611358565b91506020830135801515811461142657600080fd5b809150509250929050565b634e487b7160e01b600052604160045260246000fd5b6000806000806080858703121561145d57600080fd5b61146685611358565b935061147460208601611358565b925060408501359150606085013567ffffffffffffffff8082111561149857600080fd5b818701915087601f8301126114ac57600080fd5b8135818111156114be576114be611431565b604051601f8201601f19908116603f011681019083821181831017156114e6576114e6611431565b816040528281528a60208487010111156114ff57600080fd5b82602086016020830137600060208483010152809550505050505092959194509250565b6000806040838503121561153657600080fd5b61153f83611358565b915061154d60208401611358565b90509250929050565b600181811c9082168061156a57607f821691505b60208210810361158a57634e487b7160e01b600052602260045260246000fd5b50919050565b6020808252602d908201527f4552433732313a2063616c6c6572206973206e6f7420746f6b656e206f776e6560408201526c1c881bdc88185c1c1c9bdd9959609a1b606082015260800190565b6000845160206115f08285838a016112dc565b8551918401916116038184848a016112dc565b8554920191600090600181811c908083168061162057607f831692505b858310810361163d57634e487b7160e01b85526022600452602485fd5b808015611651576001811461166657611693565b60ff1985168852831515840288019550611693565b60008b81526020902060005b8581101561168b5781548a820152908401908801611672565b505083880195505b50939b9a5050505050505050505050565b600083516116b68184602088016112dc565b8351908301906116ca8183602088016112dc565b01949350505050565b60208082526025908201527f4552433732313a207472616e736665722066726f6d20696e636f72726563742060408201526437bbb732b960d91b606082015260800190565b634e487b7160e01b600052601160045260246000fd5b60006001820161174057611740611718565b5060010190565b634e487b7160e01b600052601260045260246000fd5b60008261176c5761176c611747565b500490565b8181038181111561031157610311611718565b60008261179357611793611747565b500690565b8082018082111561031157610311611718565b634e487b7160e01b600052603260045260246000fd5b60208082526032908201527f4552433732313a207472616e7366657220746f206e6f6e20455243373231526560408201527131b2b4bb32b91034b6b83632b6b2b73a32b960711b606082015260800190565b6001600160a01b038581168252841660208201526040810183905260806060820181905260009061184690830184611300565b9695505050505050565b60006020828403121561186257600080fd5b815161061c816112a956fea2646970667358221220a077c70d842409b6b466a3704b4c1df1243c9dcbde8cb283b24e2f98fe204c4864736f6c63430008130033",
    "linkReferences": {}
  },
  "methodIdentifiers": {
    "AvatarClaimed(address)": "c26854d2",
    "approve(address,uint256)": "095ea7b3",
    "avatarOwner(uint256)": "12ecf0af",
    "balanceOf(address)": "70a08231",
    "baseURI()": "6c0360eb",
    "createAvatar()": "5e5cd13a",
    "getApproved(uint256)": "081812fc",
    "getTokenURI(uint256)": "3bb3a24d",
    "isApprovedForAll(address,address)": "e985e9c5",
    "name()": "06fdde03",
    "ownerOf(uint256)": "6352211e",
    "safeTransferFrom(address,address,uint256)": "42842e0e",
    "safeTransferFrom(address,address,uint256,bytes)": "b88d4fde",
    "setApprovalForAll(address,bool)": "a22cb465",
    "supportsInterface(bytes4)": "01ffc9a7",
    "symbol()": "95d89b41",
    "tokenURI(uint256)": "c87b56dd",
    "transferFrom(address,address,uint256)": "23b872dd",
    "uriPrefix()": "62b99ad4",
    "uriSuffix()": "5503a0e8"
  },
  "id": 30
}