{
  "abi": [
    {
      "inputs": [
        {
          "internalType": "address",
          "name": "_tokenAddress",
          "type": "address"
        },
        {
          "internalType": "address",
          "name": "_voting",
          "type": "address"
        }
      ],
      "stateMutability": "nonpayable",
      "type": "constructor"
    },
    {
      "inputs": [],
      "name": "ChallengeAlreadyExists",
      "type": "error"
    },
    {
      "inputs": [],
      "name": "ChallengeDoesNotExist",
      "type": "error"
    },
    {
      "inputs": [],
      "name": "ChallengerIsItemRequester",
      "type": "error"
    },
    {
      "inputs": [],
      "name": "ItemAlreadyExist",
      "type": "error"
    },
    {
      "inputs": [],
      "name": "ItemChallengeExpired",
      "type": "error"
    },
    {
      "inputs": [],
      "name": "ItemDoesNotExist",
      "type": "error"
    },
    {
      "inputs": [],
      "name": "ItemHasPendingChallenge",
      "type": "error"
    },
    {
      "inputs": [],
      "name": "LengthExceeded",
      "type": "error"
    },
    {
      "inputs": [],
      "name": "LengthMismatch",
      "type": "error"
    },
    {
      "inputs": [],
      "name": "NotAuthorized",
      "type": "error"
    },
    {
      "inputs": [],
      "name": "ProposalAlreadyExists",
      "type": "error"
    },
    {
      "inputs": [],
      "name": "ProposalDoesNotExist",
      "type": "error"
    },
    {
      "anonymous": false,
      "inputs": [
        {
          "indexed": true,
          "internalType": "bytes32",
          "name": "proposalId",
          "type": "bytes32"
        },
        {
          "indexed": true,
          "internalType": "bytes32",
          "name": "itemId",
          "type": "bytes32"
        },
        {
          "indexed": true,
          "internalType": "string",
          "name": "data",
          "type": "string"
        }
      ],
      "name": "ItemAdded",
      "type": "event"
    },
    {
      "anonymous": false,
      "inputs": [
        {
          "indexed": false,
          "internalType": "address",
          "name": "challenger",
          "type": "address"
        },
        {
          "indexed": true,
          "internalType": "bytes32",
          "name": "proposalId",
          "type": "bytes32"
        },
        {
          "indexed": true,
          "internalType": "bytes32",
          "name": "itemId",
          "type": "bytes32"
        },
        {
          "indexed": true,
          "internalType": "string",
          "name": "data",
          "type": "string"
        }
      ],
      "name": "ItemChallenged",
      "type": "event"
    },
    {
      "anonymous": false,
      "inputs": [
        {
          "indexed": true,
          "internalType": "bytes32",
          "name": "proposalId",
          "type": "bytes32"
        },
        {
          "indexed": true,
          "internalType": "address",
          "name": "requester",
          "type": "address"
        },
        {
          "indexed": true,
          "internalType": "string",
          "name": "data",
          "type": "string"
        }
      ],
      "name": "ProposalSubmitted",
      "type": "event"
    },
    {
      "inputs": [],
      "name": "CHALLENGE_COST",
      "outputs": [
        {
          "internalType": "uint256",
          "name": "",
          "type": "uint256"
        }
      ],
      "stateMutability": "view",
      "type": "function"
    },
    {
      "inputs": [],
      "name": "ITEM_COST",
      "outputs": [
        {
          "internalType": "uint256",
          "name": "",
          "type": "uint256"
        }
      ],
      "stateMutability": "view",
      "type": "function"
    },
    {
      "inputs": [],
      "name": "PROPOSAL_COST",
      "outputs": [
        {
          "internalType": "uint256",
          "name": "",
          "type": "uint256"
        }
      ],
      "stateMutability": "view",
      "type": "function"
    },
    {
      "inputs": [],
      "name": "VOTE_COST",
      "outputs": [
        {
          "internalType": "uint256",
          "name": "",
          "type": "uint256"
        }
      ],
      "stateMutability": "view",
      "type": "function"
    },
    {
      "inputs": [
        {
          "internalType": "bytes32",
          "name": "proposalId",
          "type": "bytes32"
        },
        {
          "internalType": "string[]",
          "name": "datas",
          "type": "string[]"
        }
      ],
      "name": "addItems",
      "outputs": [],
      "stateMutability": "nonpayable",
      "type": "function"
    },
    {
      "inputs": [],
      "name": "challengeDuration",
      "outputs": [
        {
          "internalType": "uint256",
          "name": "",
          "type": "uint256"
        }
      ],
      "stateMutability": "view",
      "type": "function"
    },
    {
      "inputs": [
        {
          "internalType": "bytes32[]",
          "name": "itemIds",
          "type": "bytes32[]"
        },
        {
          "internalType": "string[]",
          "name": "data",
          "type": "string[]"
        }
      ],
      "name": "challengeItems",
      "outputs": [],
      "stateMutability": "nonpayable",
      "type": "function"
    },
    {
      "inputs": [
        {
          "internalType": "bytes32",
          "name": "",
          "type": "bytes32"
        }
      ],
      "name": "challenges",
      "outputs": [
        {
          "internalType": "address",
          "name": "challenger",
          "type": "address"
        },
        {
          "internalType": "uint96",
          "name": "exists",
          "type": "uint96"
        },
        {
          "internalType": "bytes32",
          "name": "itemId",
          "type": "bytes32"
        },
        {
          "internalType": "enum MileysTCRegistries.Status",
          "name": "status",
          "type": "uint8"
        },
        {
          "internalType": "string",
          "name": "data",
          "type": "string"
        }
      ],
      "stateMutability": "view",
      "type": "function"
    },
    {
      "inputs": [
        {
          "internalType": "uint256",
          "name": "",
          "type": "uint256"
        }
      ],
      "name": "challengesId",
      "outputs": [
        {
          "internalType": "bytes32",
          "name": "",
          "type": "bytes32"
        }
      ],
      "stateMutability": "view",
      "type": "function"
    },
    {
      "inputs": [],
      "name": "challengesLength",
      "outputs": [
        {
          "internalType": "uint256",
          "name": "",
          "type": "uint256"
        }
      ],
      "stateMutability": "view",
      "type": "function"
    },
    {
      "inputs": [
        {
          "internalType": "bytes32",
          "name": "challengeId",
          "type": "bytes32"
        }
      ],
      "name": "existingChallenge",
      "outputs": [
        {
          "internalType": "bool",
          "name": "",
          "type": "bool"
        }
      ],
      "stateMutability": "view",
      "type": "function"
    },
    {
      "inputs": [
        {
          "internalType": "bytes32",
          "name": "itemId",
          "type": "bytes32"
        }
      ],
      "name": "existingItem",
      "outputs": [
        {
          "internalType": "bool",
          "name": "",
          "type": "bool"
        }
      ],
      "stateMutability": "view",
      "type": "function"
    },
    {
      "inputs": [
        {
          "internalType": "bytes32",
          "name": "proposalId",
          "type": "bytes32"
        }
      ],
      "name": "existingProposal",
      "outputs": [
        {
          "internalType": "bool",
          "name": "",
          "type": "bool"
        }
      ],
      "stateMutability": "view",
      "type": "function"
    },
    {
      "inputs": [
        {
          "internalType": "bytes32",
          "name": "itemId",
          "type": "bytes32"
        },
        {
          "internalType": "uint256",
          "name": "index",
          "type": "uint256"
        }
      ],
      "name": "getChallengeFromItem",
      "outputs": [
        {
          "internalType": "bytes32",
          "name": "",
          "type": "bytes32"
        }
      ],
      "stateMutability": "view",
      "type": "function"
    },
    {
      "inputs": [
        {
          "internalType": "bytes32",
          "name": "itemId",
          "type": "bytes32"
        }
      ],
      "name": "getChallengesLengthFromItem",
      "outputs": [
        {
          "internalType": "uint256",
          "name": "",
          "type": "uint256"
        }
      ],
      "stateMutability": "view",
      "type": "function"
    },
    {
      "inputs": [
        {
          "internalType": "bytes32",
          "name": "proposalId",
          "type": "bytes32"
        },
        {
          "internalType": "uint256",
          "name": "index",
          "type": "uint256"
        }
      ],
      "name": "getItemFromProposal",
      "outputs": [
        {
          "internalType": "bytes32",
          "name": "",
          "type": "bytes32"
        }
      ],
      "stateMutability": "view",
      "type": "function"
    },
    {
      "inputs": [
        {
          "internalType": "bytes32",
          "name": "proposalId",
          "type": "bytes32"
        }
      ],
      "name": "getItemsLengthFromProposal",
      "outputs": [
        {
          "internalType": "uint256",
          "name": "",
          "type": "uint256"
        }
      ],
      "stateMutability": "view",
      "type": "function"
    },
    {
      "inputs": [
        {
          "internalType": "bytes32",
          "name": "",
          "type": "bytes32"
        }
      ],
      "name": "items",
      "outputs": [
        {
          "internalType": "uint88",
          "name": "challengeExpiration",
          "type": "uint88"
        },
        {
          "internalType": "uint8",
          "name": "pendingChallenge",
          "type": "uint8"
        },
        {
          "internalType": "address",
          "name": "requester",
          "type": "address"
        },
        {
          "internalType": "string",
          "name": "data",
          "type": "string"
        }
      ],
      "stateMutability": "view",
      "type": "function"
    },
    {
      "inputs": [
        {
          "internalType": "uint256",
          "name": "",
          "type": "uint256"
        }
      ],
      "name": "itemsId",
      "outputs": [
        {
          "internalType": "bytes32",
          "name": "",
          "type": "bytes32"
        }
      ],
      "stateMutability": "view",
      "type": "function"
    },
    {
      "inputs": [],
      "name": "itemsLength",
      "outputs": [
        {
          "internalType": "uint256",
          "name": "",
          "type": "uint256"
        }
      ],
      "stateMutability": "view",
      "type": "function"
    },
    {
      "inputs": [
        {
          "internalType": "bytes32",
          "name": "",
          "type": "bytes32"
        }
      ],
      "name": "proposals",
      "outputs": [
        {
          "internalType": "address",
          "name": "requester",
          "type": "address"
        },
        {
          "internalType": "uint88",
          "name": "totalDeposit",
          "type": "uint88"
        },
        {
          "internalType": "uint8",
          "name": "exists",
          "type": "uint8"
        },
        {
          "internalType": "string",
          "name": "data",
          "type": "string"
        }
      ],
      "stateMutability": "view",
      "type": "function"
    },
    {
      "inputs": [
        {
          "internalType": "uint256",
          "name": "",
          "type": "uint256"
        }
      ],
      "name": "proposalsId",
      "outputs": [
        {
          "internalType": "bytes32",
          "name": "",
          "type": "bytes32"
        }
      ],
      "stateMutability": "view",
      "type": "function"
    },
    {
      "inputs": [],
      "name": "proposalsLength",
      "outputs": [
        {
          "internalType": "uint256",
          "name": "",
          "type": "uint256"
        }
      ],
      "stateMutability": "view",
      "type": "function"
    },
    {
      "inputs": [
        {
          "internalType": "string",
          "name": "data",
          "type": "string"
        }
      ],
      "name": "propose",
      "outputs": [],
      "stateMutability": "nonpayable",
      "type": "function"
    },
    {
      "inputs": [],
      "name": "token",
      "outputs": [
        {
          "internalType": "address",
          "name": "",
          "type": "address"
        }
      ],
      "stateMutability": "view",
      "type": "function"
    },
    {
      "inputs": [],
      "name": "voting",
      "outputs": [
        {
          "internalType": "contract MileysTCRVoting",
          "name": "",
          "type": "address"
        }
      ],
      "stateMutability": "view",
      "type": "function"
    }
  ],
  "bytecode": {
    "object": "0x608060405262278d0060025534801561001757600080fd5b5060405161160338038061160383398101604081905261003691610083565b600080546001600160a01b039384166001600160a01b031991821617909155600180549290931691161790556100b6565b80516001600160a01b038116811461007e57600080fd5b919050565b6000806040838503121561009657600080fd5b61009f83610067565b91506100ad60208401610067565b90509250929050565b61153e806100c56000396000f3fe608060405234801561001057600080fd5b506004361061018e5760003560e01c80636ce576e1116100de578063b362dbf611610097578063f863208d11610071578063f863208d146103aa578063fc0c546a146103b2578063fce1ccca146103dd578063fe71b8ba146101cc57600080fd5b8063b362dbf614610364578063c1e69b6614610373578063da3f8b1b1461039757600080fd5b80636ce576e1146102f05780637de32a43146101cc5780638148970d146103035780638199e4611461033657806386e5152a1461033e578063aa98df391461035157600080fd5b806344c7c8671161014b57806348f343f31161012557806348f343f3146102825780635042edae146102a55780635bf597a9146102c85780636c9621ba146102db57600080fd5b806344c7c867146102445780634692fcf61461024c578063476c88011461026f57600080fd5b80631ebae6f81461019357806325f40a0e146101b957806326f92b74146101cc578063291485b9146101db578063292f2e0e1461021857806332ed5b1214610221575b600080fd5b6101a66101a1366004610ea0565b6103f0565b6040519081526020015b60405180910390f35b6101a66101c7366004610eb9565b610411565b6101a667016345785d8a000081565b6102086101e9366004610ea0565b600090815260036020526040902054600160f81b900460ff1660011490565b60405190151581526020016101b0565b6101a660025481565b61023461022f366004610ea0565b610448565b6040516101b09493929190610f2b565b6006546101a6565b6101a661025a366004610ea0565b60009081526005602052604090206002015490565b6101a661027d366004610ea0565b610513565b610295610290366004610ea0565b610523565b6040516101b09493929190610f71565b6101a66102b3366004610ea0565b60009081526003602052604090206002015490565b6101a66102d6366004610eb9565b61056b565b6102ee6102e9366004610ff9565b61058e565b005b6102086102fe366004610ea0565b61068b565b610208610311366004610ea0565b600090815260046020526040902054600160a01b90046001600160601b031660011490565b6008546101a6565b6102ee61034c366004611045565b6106af565b6102ee61035f3660046110c7565b61075d565b6101a6670de0b6b3a764000081565b610386610381366004610ea0565b61091f565b6040516101b0959493929190611178565b6101a66103a5366004610ea0565b6109f0565b6007546101a6565b6000546103c5906001600160a01b031681565b6040516001600160a01b0390911681526020016101b0565b6001546103c5906001600160a01b031681565b6008818154811061040057600080fd5b600091825260209091200154905081565b6000828152600360205260408120600201805483908110610434576104346111df565b906000526020600020015490505b92915050565b600360205260009081526040902080546001820180546001600160a01b03831693600160a01b84046001600160581b031693600160f81b900460ff16929091610490906111f5565b80601f01602080910402602001604051908101604052809291908181526020018280546104bc906111f5565b80156105095780601f106104de57610100808354040283529160200191610509565b820191906000526020600020905b8154815290600101906020018083116104ec57829003601f168201915b5050505050905084565b6006818154811061040057600080fd5b600560205260009081526040902080546001820180546001600160581b03831693600160581b840460ff1693600160601b90046001600160a01b0316929091610490906111f5565b6000828152600560205260408120600201805483908110610434576104346111df565b600a8111156105b057604051630e0ca17360e31b815260040160405180910390fd5b60005b818110156105fa576105e8848484848181106105d1576105d16111df565b90506020028101906105e3919061122f565b610a00565b806105f28161128c565b9150506105b3565b506000546040516323b872dd60e01b815233600482015230602482015267016345785d8a000060448201526001600160a01b03909116906323b872dd906064016020604051808303816000875af1158015610659573d6000803e3d6000fd5b505050506040513d601f19601f8201168201806040525081019061067d91906112a5565b61068657600080fd5b505050565b600090815260056020526040902054600160601b90046001600160a01b0316151590565b600a8311156106d157604051630e0ca17360e31b815260040160405180910390fd5b8281146106f4576040516001621398b960e31b0319815260040160405180910390fd5b60005b8381101561075657610744858583818110610714576107146111df565b9050602002013584848481811061072d5761072d6111df565b905060200281019061073f919061122f565b610b70565b8061074e8161128c565b9150506106f7565b5050505050565b60008160405160200161077091906112ce565b60408051601f19818403018152918152815160209283012060008181526003909352912054909150600160f81b900460ff166001036107c257604051635c61cf3160e11b815260040160405180910390fd5b60008181526003602052604090208054600160f81b6001600160f81b0319909116336affffffffffffffffffffff60a01b1916176503782dace9d960b21b176001600160f81b0316178155670de0b6b3a76400009060018101610825858261132f565b506000546040516323b872dd60e01b8152336004820152306024820152604481018490526001600160a01b03909116906323b872dd906064016020604051808303816000875af115801561087d573d6000803e3d6000fd5b505050506040513d601f19601f820116820180604052508101906108a191906112a5565b50600680546001810182556000919091527ff652222313e28459528d920b65115c16c04f3efc82aaedc97be59f3f377c0d3f018390556040516108e59085906113ef565b60405190819003812090339085907fe3d9c91fef9ec1a5517b77d8f83af57508342220388c74d079df56bb9c5349e090600090a450505050565b60046020526000908152604090208054600182015460028301546003840180546001600160a01b03851695600160a01b9095046001600160601b03169460ff90931692919061096d906111f5565b80601f0160208091040260200160405190810160405280929190818152602001828054610999906111f5565b80156109e65780601f106109bb576101008083540402835291602001916109e6565b820191906000526020600020905b8154815290600101906020018083116109c957829003601f168201915b5050505050905085565b6007818154811061040057600080fd5b600083815260036020526040902054600160f81b900460ff16600114610a3957604051636ce3c70160e11b815260040160405180910390fd5b6000838383604051602001610a509392919061140b565b604051602081830303815290604052805190602001209050610a718161068b565b15610a8f57604051633c6256b560e21b815260040160405180910390fd5b6000818152600560205260409020600254610aaa9042611425565b6001600160581b031633600160601b0217815560018101610acc848683611438565b5060008581526003602090815260408083206002018054600181810183559185529284209092018590556007805492830181559092527fa66cc928b5edb82af9bd49922954155ab7b0942694bea4ce44661d9a8736c6880183905551610b3590859085906114f8565b60405190819003812090839087907fa414b109cdce8a3d86c7ee633dbb4fd68a4b34f4700cfd21254d17c4e61c6ddf90600090a45050505050565b610b798361068b565b1515600003610b9b57604051639a749d8160e01b815260040160405180910390fd5b6000838152600560205260409020546001600160581b0316421115610bd3576040516331dd60bb60e11b815260040160405180910390fd5b600083815260056020526040902054600160581b900460ff16600103610c0c576040516367599ef560e01b815260040160405180910390fd5b60008381526005602052604090205433600160601b9091046001600160a01b031603610c4b5760405163029285b560e11b815260040160405180910390fd5b6000838383604051602001610c629392919061140b565b60408051601f19818403018152918152815160209283012060008181526004909352912054909150600160a01b90046001600160601b0316600103610cba57604051634450435760e01b815260040160405180910390fd5b600081815260046020526040902033600160a01b1781556001810185905560028101805460ff1916905560038101610cf3848683611438565b506000858152600560209081526040808320805460ff60581b1916600160581b1781556002018054600181810183559185529290932090910184905590549051632c28d80960e01b8152600481018490526001600160a01b0390911690632c28d80990602401600060405180830381600087803b158015610d7357600080fd5b505af1158015610d87573d6000803e3d6000fd5b50506000546040516323b872dd60e01b815233600482015230602482015267016345785d8a000060448201526001600160a01b0390911692506323b872dd91506064016020604051808303816000875af1158015610de9573d6000803e3d6000fd5b505050506040513d601f19601f82011682018060405250810190610e0d91906112a5565b610e1657600080fd5b600880546001810182556000919091527ff3f7a9fe364faab93b216da50a3214154f22a0a2b415b23a84c8169e8b636ee301829055604051610e5b90859085906114f8565b60405190819003812033825290839087907f4858b9eadbfc5ae09fff2a2b94cde76d0b01a80790699e0ee2ca8ffba4c347039060200160405180910390a45050505050565b600060208284031215610eb257600080fd5b5035919050565b60008060408385031215610ecc57600080fd5b50508035926020909101359150565b60005b83811015610ef6578181015183820152602001610ede565b50506000910152565b60008151808452610f17816020860160208601610edb565b601f01601f19169290920160200192915050565b6001600160a01b03851681526001600160581b038416602082015260ff83166040820152608060608201819052600090610f6790830184610eff565b9695505050505050565b6001600160581b038516815260ff841660208201526001600160a01b0383166040820152608060608201819052600090610f6790830184610eff565b60008083601f840112610fbf57600080fd5b50813567ffffffffffffffff811115610fd757600080fd5b6020830191508360208260051b8501011115610ff257600080fd5b9250929050565b60008060006040848603121561100e57600080fd5b83359250602084013567ffffffffffffffff81111561102c57600080fd5b61103886828701610fad565b9497909650939450505050565b6000806000806040858703121561105b57600080fd5b843567ffffffffffffffff8082111561107357600080fd5b61107f88838901610fad565b9096509450602087013591508082111561109857600080fd5b506110a587828801610fad565b95989497509550505050565b634e487b7160e01b600052604160045260246000fd5b6000602082840312156110d957600080fd5b813567ffffffffffffffff808211156110f157600080fd5b818401915084601f83011261110557600080fd5b813581811115611117576111176110b1565b604051601f8201601f19908116603f0116810190838211818310171561113f5761113f6110b1565b8160405282815287602084870101111561115857600080fd5b826020860160208301376000928101602001929092525095945050505050565b6001600160a01b03861681526001600160601b0385166020820152604081018490526000600384106111ba57634e487b7160e01b600052602160045260246000fd5b83606083015260a060808301526111d460a0830184610eff565b979650505050505050565b634e487b7160e01b600052603260045260246000fd5b600181811c9082168061120957607f821691505b60208210810361122957634e487b7160e01b600052602260045260246000fd5b50919050565b6000808335601e1984360301811261124657600080fd5b83018035915067ffffffffffffffff82111561126157600080fd5b602001915036819003821315610ff257600080fd5b634e487b7160e01b600052601160045260246000fd5b60006001820161129e5761129e611276565b5060010190565b6000602082840312156112b757600080fd5b815180151581146112c757600080fd5b9392505050565b6020815260006112c76020830184610eff565b601f82111561068657600081815260208120601f850160051c810160208610156113085750805b601f850160051c820191505b8181101561132757828155600101611314565b505050505050565b815167ffffffffffffffff811115611349576113496110b1565b61135d8161135784546111f5565b846112e1565b602080601f831160018114611392576000841561137a5750858301515b600019600386901b1c1916600185901b178555611327565b600085815260208120601f198616915b828110156113c1578886015182559484019460019091019084016113a2565b50858210156113df5787850151600019600388901b60f8161c191681555b5050505050600190811b01905550565b60008251611401818460208701610edb565b9190910192915050565b838152818360208301376000910160200190815292915050565b8082018082111561044257610442611276565b67ffffffffffffffff831115611450576114506110b1565b6114648361145e83546111f5565b836112e1565b6000601f84116001811461149857600085156114805750838201355b600019600387901b1c1916600186901b178355610756565b600083815260209020601f19861690835b828110156114c957868501358255602094850194600190920191016114a9565b50868210156114e65760001960f88860031b161c19848701351681555b505060018560011b0183555050505050565b818382376000910190815291905056fea2646970667358221220705af1be96415813b23a2bcb3e110d31cee042843bc2e5c1f4fe35c8494ee31564736f6c63430008130033",
    "linkReferences": {}
  },
  "methodIdentifiers": {
    "CHALLENGE_COST()": "7de32a43",
    "ITEM_COST()": "26f92b74",
    "PROPOSAL_COST()": "b362dbf6",
    "VOTE_COST()": "fe71b8ba",
    "addItems(bytes32,string[])": "6c9621ba",
    "challengeDuration()": "292f2e0e",
    "challengeItems(bytes32[],string[])": "86e5152a",
    "challenges(bytes32)": "c1e69b66",
    "challengesId(uint256)": "1ebae6f8",
    "challengesLength()": "8199e461",
    "existingChallenge(bytes32)": "8148970d",
    "existingItem(bytes32)": "6ce576e1",
    "existingProposal(bytes32)": "291485b9",
    "getChallengeFromItem(bytes32,uint256)": "5bf597a9",
    "getChallengesLengthFromItem(bytes32)": "4692fcf6",
    "getItemFromProposal(bytes32,uint256)": "25f40a0e",
    "getItemsLengthFromProposal(bytes32)": "5042edae",
    "items(bytes32)": "48f343f3",
    "itemsId(uint256)": "da3f8b1b",
    "itemsLength()": "f863208d",
    "proposals(bytes32)": "32ed5b12",
    "proposalsId(uint256)": "476c8801",
    "proposalsLength()": "44c7c867",
    "propose(string)": "aa98df39",
    "token()": "fc0c546a",
    "voting()": "fce1ccca"
  },
  "id": 25
}