{
  "abi": [
    {
      "inputs": [
        {
          "internalType": "address",
          "name": "_tokenAddress",
          "type": "address"
        },
        {
          "internalType": "address",
          "name": "_voting",
          "type": "address"
        }
      ],
      "stateMutability": "nonpayable",
      "type": "constructor"
    },
    {
      "inputs": [],
      "name": "ChallengeAlreadyExists",
      "type": "error"
    },
    {
      "inputs": [],
      "name": "ChallengeDoesNotExist",
      "type": "error"
    },
    {
      "inputs": [],
      "name": "ChallengerIsItemRequester",
      "type": "error"
    },
    {
      "inputs": [],
      "name": "ItemAlreadyExist",
      "type": "error"
    },
    {
      "inputs": [],
      "name": "ItemChallengeExpired",
      "type": "error"
    },
    {
      "inputs": [],
      "name": "ItemDoesNotExist",
      "type": "error"
    },
    {
      "inputs": [],
      "name": "ItemHasPendingChallenge",
      "type": "error"
    },
    {
      "inputs": [],
      "name": "LengthExceeded",
      "type": "error"
    },
    {
      "inputs": [],
      "name": "LengthMismatch",
      "type": "error"
    },
    {
      "inputs": [],
      "name": "NotAuthorized",
      "type": "error"
    },
    {
      "inputs": [],
      "name": "ProposalAlreadyExists",
      "type": "error"
    },
    {
      "inputs": [],
      "name": "ProposalDoesNotExist",
      "type": "error"
    },
    {
      "anonymous": false,
      "inputs": [
        {
          "indexed": true,
          "internalType": "bytes32",
          "name": "proposalId",
          "type": "bytes32"
        },
        {
          "indexed": true,
          "internalType": "bytes32",
          "name": "itemId",
          "type": "bytes32"
        },
        {
          "indexed": true,
          "internalType": "string",
          "name": "data",
          "type": "string"
        }
      ],
      "name": "ItemAdded",
      "type": "event"
    },
    {
      "anonymous": false,
      "inputs": [
        {
          "indexed": false,
          "internalType": "address",
          "name": "challenger",
          "type": "address"
        },
        {
          "indexed": true,
          "internalType": "bytes32",
          "name": "proposalId",
          "type": "bytes32"
        },
        {
          "indexed": true,
          "internalType": "bytes32",
          "name": "itemId",
          "type": "bytes32"
        },
        {
          "indexed": true,
          "internalType": "string",
          "name": "data",
          "type": "string"
        }
      ],
      "name": "ItemChallenged",
      "type": "event"
    },
    {
      "anonymous": false,
      "inputs": [
        {
          "indexed": true,
          "internalType": "bytes32",
          "name": "proposalId",
          "type": "bytes32"
        },
        {
          "indexed": true,
          "internalType": "address",
          "name": "requester",
          "type": "address"
        },
        {
          "indexed": true,
          "internalType": "string",
          "name": "data",
          "type": "string"
        }
      ],
      "name": "ProposalSubmitted",
      "type": "event"
    },
    {
      "inputs": [],
      "name": "CHALLENGE_COST",
      "outputs": [
        {
          "internalType": "uint256",
          "name": "",
          "type": "uint256"
        }
      ],
      "stateMutability": "view",
      "type": "function"
    },
    {
      "inputs": [],
      "name": "ITEM_COST",
      "outputs": [
        {
          "internalType": "uint256",
          "name": "",
          "type": "uint256"
        }
      ],
      "stateMutability": "view",
      "type": "function"
    },
    {
      "inputs": [],
      "name": "PROPOSAL_COST",
      "outputs": [
        {
          "internalType": "uint256",
          "name": "",
          "type": "uint256"
        }
      ],
      "stateMutability": "view",
      "type": "function"
    },
    {
      "inputs": [],
      "name": "VOTE_COST",
      "outputs": [
        {
          "internalType": "uint256",
          "name": "",
          "type": "uint256"
        }
      ],
      "stateMutability": "view",
      "type": "function"
    },
    {
      "inputs": [
        {
          "internalType": "bytes32",
          "name": "proposalId",
          "type": "bytes32"
        },
        {
          "internalType": "string[]",
          "name": "datas",
          "type": "string[]"
        }
      ],
      "name": "addItems",
      "outputs": [],
      "stateMutability": "nonpayable",
      "type": "function"
    },
    {
      "inputs": [],
      "name": "challengeDuration",
      "outputs": [
        {
          "internalType": "uint256",
          "name": "",
          "type": "uint256"
        }
      ],
      "stateMutability": "view",
      "type": "function"
    },
    {
      "inputs": [
        {
          "internalType": "bytes32[]",
          "name": "itemIds",
          "type": "bytes32[]"
        },
        {
          "internalType": "string[]",
          "name": "data",
          "type": "string[]"
        }
      ],
      "name": "challengeItems",
      "outputs": [],
      "stateMutability": "nonpayable",
      "type": "function"
    },
    {
      "inputs": [
        {
          "internalType": "bytes32",
          "name": "",
          "type": "bytes32"
        }
      ],
      "name": "challenges",
      "outputs": [
        {
          "internalType": "address",
          "name": "challenger",
          "type": "address"
        },
        {
          "internalType": "uint96",
          "name": "exists",
          "type": "uint96"
        },
        {
          "internalType": "bytes32",
          "name": "itemId",
          "type": "bytes32"
        },
        {
          "internalType": "enum MileysTCRegistries.Status",
          "name": "status",
          "type": "uint8"
        },
        {
          "internalType": "string",
          "name": "data",
          "type": "string"
        }
      ],
      "stateMutability": "view",
      "type": "function"
    },
    {
      "inputs": [
        {
          "internalType": "uint256",
          "name": "",
          "type": "uint256"
        }
      ],
      "name": "challengesId",
      "outputs": [
        {
          "internalType": "bytes32",
          "name": "",
          "type": "bytes32"
        }
      ],
      "stateMutability": "view",
      "type": "function"
    },
    {
      "inputs": [],
      "name": "challengesLength",
      "outputs": [
        {
          "internalType": "uint256",
          "name": "",
          "type": "uint256"
        }
      ],
      "stateMutability": "view",
      "type": "function"
    },
    {
      "inputs": [
        {
          "internalType": "bytes32",
          "name": "challengeId",
          "type": "bytes32"
        }
      ],
      "name": "existingChallenge",
      "outputs": [
        {
          "internalType": "bool",
          "name": "",
          "type": "bool"
        }
      ],
      "stateMutability": "view",
      "type": "function"
    },
    {
      "inputs": [
        {
          "internalType": "bytes32",
          "name": "itemId",
          "type": "bytes32"
        }
      ],
      "name": "existingItem",
      "outputs": [
        {
          "internalType": "bool",
          "name": "",
          "type": "bool"
        }
      ],
      "stateMutability": "view",
      "type": "function"
    },
    {
      "inputs": [
        {
          "internalType": "bytes32",
          "name": "proposalId",
          "type": "bytes32"
        }
      ],
      "name": "existingProposal",
      "outputs": [
        {
          "internalType": "bool",
          "name": "",
          "type": "bool"
        }
      ],
      "stateMutability": "view",
      "type": "function"
    },
    {
      "inputs": [
        {
          "internalType": "bytes32",
          "name": "itemId",
          "type": "bytes32"
        }
      ],
      "name": "getChallengesLengthFromItem",
      "outputs": [
        {
          "internalType": "uint256",
          "name": "",
          "type": "uint256"
        }
      ],
      "stateMutability": "view",
      "type": "function"
    },
    {
      "inputs": [
        {
          "internalType": "bytes32",
          "name": "proposalId",
          "type": "bytes32"
        }
      ],
      "name": "getItemsLengthFromProposal",
      "outputs": [
        {
          "internalType": "uint256",
          "name": "",
          "type": "uint256"
        }
      ],
      "stateMutability": "view",
      "type": "function"
    },
    {
      "inputs": [
        {
          "internalType": "bytes32",
          "name": "",
          "type": "bytes32"
        }
      ],
      "name": "items",
      "outputs": [
        {
          "internalType": "uint88",
          "name": "challengeExpiration",
          "type": "uint88"
        },
        {
          "internalType": "uint8",
          "name": "pendingChallenge",
          "type": "uint8"
        },
        {
          "internalType": "address",
          "name": "requester",
          "type": "address"
        },
        {
          "internalType": "string",
          "name": "data",
          "type": "string"
        }
      ],
      "stateMutability": "view",
      "type": "function"
    },
    {
      "inputs": [
        {
          "internalType": "uint256",
          "name": "",
          "type": "uint256"
        }
      ],
      "name": "itemsId",
      "outputs": [
        {
          "internalType": "bytes32",
          "name": "",
          "type": "bytes32"
        }
      ],
      "stateMutability": "view",
      "type": "function"
    },
    {
      "inputs": [],
      "name": "itemsLength",
      "outputs": [
        {
          "internalType": "uint256",
          "name": "",
          "type": "uint256"
        }
      ],
      "stateMutability": "view",
      "type": "function"
    },
    {
      "inputs": [
        {
          "internalType": "bytes32",
          "name": "",
          "type": "bytes32"
        }
      ],
      "name": "proposals",
      "outputs": [
        {
          "internalType": "address",
          "name": "requester",
          "type": "address"
        },
        {
          "internalType": "uint88",
          "name": "totalDeposit",
          "type": "uint88"
        },
        {
          "internalType": "uint8",
          "name": "exists",
          "type": "uint8"
        },
        {
          "internalType": "string",
          "name": "data",
          "type": "string"
        }
      ],
      "stateMutability": "view",
      "type": "function"
    },
    {
      "inputs": [
        {
          "internalType": "uint256",
          "name": "",
          "type": "uint256"
        }
      ],
      "name": "proposalsId",
      "outputs": [
        {
          "internalType": "bytes32",
          "name": "",
          "type": "bytes32"
        }
      ],
      "stateMutability": "view",
      "type": "function"
    },
    {
      "inputs": [],
      "name": "proposalsLength",
      "outputs": [
        {
          "internalType": "uint256",
          "name": "",
          "type": "uint256"
        }
      ],
      "stateMutability": "view",
      "type": "function"
    },
    {
      "inputs": [
        {
          "internalType": "string",
          "name": "data",
          "type": "string"
        }
      ],
      "name": "propose",
      "outputs": [],
      "stateMutability": "nonpayable",
      "type": "function"
    },
    {
      "inputs": [],
      "name": "token",
      "outputs": [
        {
          "internalType": "address",
          "name": "",
          "type": "address"
        }
      ],
      "stateMutability": "view",
      "type": "function"
    },
    {
      "inputs": [],
      "name": "voting",
      "outputs": [
        {
          "internalType": "contract MileysTCRVoting",
          "name": "",
          "type": "address"
        }
      ],
      "stateMutability": "view",
      "type": "function"
    }
  ],
  "bytecode": {
    "object": "0x608060405262278d0060025534801561001757600080fd5b5060405161153138038061153183398101604081905261003691610083565b600080546001600160a01b039384166001600160a01b031991821617909155600180549290931691161790556100b6565b80516001600160a01b038116811461007e57600080fd5b919050565b6000806040838503121561009657600080fd5b61009f83610067565b91506100ad60208401610067565b90509250929050565b61146c806100c56000396000f3fe608060405234801561001057600080fd5b50600436106101585760003560e01c80637de32a43116100c3578063c1e69b661161007c578063c1e69b6614610317578063da3f8b1b1461033b578063f863208d1461034e578063fc0c546a14610356578063fce1ccca14610381578063fe71b8ba1461018357600080fd5b80637de32a43146101835780638148970d146102a75780638199e461146102da57806386e5152a146102e2578063aa98df39146102f5578063b362dbf61461030857600080fd5b80634692fcf6116101155780634692fcf614610203578063476c88011461022657806348f343f3146102395780635042edae1461025c5780636c9621ba1461027f5780636ce576e11461029457600080fd5b80631ebae6f81461015d57806326f92b7414610183578063291485b914610192578063292f2e0e146101cf57806332ed5b12146101d857806344c7c867146101fb575b600080fd5b61017061016b366004610dea565b610394565b6040519081526020015b60405180910390f35b61017067016345785d8a000081565b6101bf6101a0366004610dea565b600090815260036020526040902054600160f81b900460ff1660011490565b604051901515815260200161017a565b61017060025481565b6101eb6101e6366004610dea565b6103b5565b60405161017a9493929190610e53565b600654610170565b610170610211366004610dea565b60009081526005602052604090206002015490565b610170610234366004610dea565b610480565b61024c610247366004610dea565b610490565b60405161017a9493929190610e99565b61017061026a366004610dea565b60009081526003602052604090206002015490565b61029261028d366004610f21565b6104d8565b005b6101bf6102a2366004610dea565b6105d5565b6101bf6102b5366004610dea565b600090815260046020526040902054600160a01b90046001600160601b031660011490565b600854610170565b6102926102f0366004610f6d565b6105f9565b610292610303366004610fef565b6106a7565b610170670de0b6b3a764000081565b61032a610325366004610dea565b610869565b60405161017a9594939291906110a0565b610170610349366004610dea565b61093a565b600754610170565b600054610369906001600160a01b031681565b6040516001600160a01b03909116815260200161017a565b600154610369906001600160a01b031681565b600881815481106103a457600080fd5b600091825260209091200154905081565b600360205260009081526040902080546001820180546001600160a01b03831693600160a01b84046001600160581b031693600160f81b900460ff169290916103fd90611107565b80601f016020809104026020016040519081016040528092919081815260200182805461042990611107565b80156104765780601f1061044b57610100808354040283529160200191610476565b820191906000526020600020905b81548152906001019060200180831161045957829003601f168201915b5050505050905084565b600681815481106103a457600080fd5b600560205260009081526040902080546001820180546001600160581b03831693600160581b840460ff1693600160601b90046001600160a01b03169290916103fd90611107565b600a8111156104fa57604051630e0ca17360e31b815260040160405180910390fd5b60005b81811015610544576105328484848481811061051b5761051b611141565b905060200281019061052d9190611157565b61094a565b8061053c816111b4565b9150506104fd565b506000546040516323b872dd60e01b815233600482015230602482015267016345785d8a000060448201526001600160a01b03909116906323b872dd906064016020604051808303816000875af11580156105a3573d6000803e3d6000fd5b505050506040513d601f19601f820116820180604052508101906105c791906111cd565b6105d057600080fd5b505050565b600090815260056020526040902054600160601b90046001600160a01b0316151590565b600a83111561061b57604051630e0ca17360e31b815260040160405180910390fd5b82811461063e576040516001621398b960e31b0319815260040160405180910390fd5b60005b838110156106a05761068e85858381811061065e5761065e611141565b9050602002013584848481811061067757610677611141565b90506020028101906106899190611157565b610aba565b80610698816111b4565b915050610641565b5050505050565b6000816040516020016106ba91906111f6565b60408051601f19818403018152918152815160209283012060008181526003909352912054909150600160f81b900460ff1660010361070c57604051635c61cf3160e11b815260040160405180910390fd5b60008181526003602052604090208054600160f81b6001600160f81b0319909116336affffffffffffffffffffff60a01b1916176503782dace9d960b21b176001600160f81b0316178155670de0b6b3a7640000906001810161076f8582611257565b506000546040516323b872dd60e01b8152336004820152306024820152604481018490526001600160a01b03909116906323b872dd906064016020604051808303816000875af11580156107c7573d6000803e3d6000fd5b505050506040513d601f19601f820116820180604052508101906107eb91906111cd565b50600680546001810182556000919091527ff652222313e28459528d920b65115c16c04f3efc82aaedc97be59f3f377c0d3f0183905560405161082f908590611317565b60405190819003812090339085907fe3d9c91fef9ec1a5517b77d8f83af57508342220388c74d079df56bb9c5349e090600090a450505050565b60046020526000908152604090208054600182015460028301546003840180546001600160a01b03851695600160a01b9095046001600160601b03169460ff9093169291906108b790611107565b80601f01602080910402602001604051908101604052809291908181526020018280546108e390611107565b80156109305780601f1061090557610100808354040283529160200191610930565b820191906000526020600020905b81548152906001019060200180831161091357829003601f168201915b5050505050905085565b600781815481106103a457600080fd5b600083815260036020526040902054600160f81b900460ff1660011461098357604051636ce3c70160e11b815260040160405180910390fd5b600083838360405160200161099a93929190611333565b6040516020818303038152906040528051906020012090506109bb816105d5565b156109d957604051633c6256b560e21b815260040160405180910390fd5b60008181526005602052604090206002546109f4904261134d565b6001600160581b031633600160601b0217815560018101610a16848683611366565b5060008581526003602090815260408083206002018054600181810183559185529284209092018590556007805492830181559092527fa66cc928b5edb82af9bd49922954155ab7b0942694bea4ce44661d9a8736c6880183905551610a7f9085908590611426565b60405190819003812090839087907fa414b109cdce8a3d86c7ee633dbb4fd68a4b34f4700cfd21254d17c4e61c6ddf90600090a45050505050565b610ac3836105d5565b1515600003610ae557604051639a749d8160e01b815260040160405180910390fd5b6000838152600560205260409020546001600160581b0316421115610b1d576040516331dd60bb60e11b815260040160405180910390fd5b600083815260056020526040902054600160581b900460ff16600103610b56576040516367599ef560e01b815260040160405180910390fd5b60008381526005602052604090205433600160601b9091046001600160a01b031603610b955760405163029285b560e11b815260040160405180910390fd5b6000838383604051602001610bac93929190611333565b60408051601f19818403018152918152815160209283012060008181526004909352912054909150600160a01b90046001600160601b0316600103610c0457604051634450435760e01b815260040160405180910390fd5b600081815260046020526040902033600160a01b1781556001810185905560028101805460ff1916905560038101610c3d848683611366565b506000858152600560209081526040808320805460ff60581b1916600160581b1781556002018054600181810183559185529290932090910184905590549051632c28d80960e01b8152600481018490526001600160a01b0390911690632c28d80990602401600060405180830381600087803b158015610cbd57600080fd5b505af1158015610cd1573d6000803e3d6000fd5b50506000546040516323b872dd60e01b815233600482015230602482015267016345785d8a000060448201526001600160a01b0390911692506323b872dd91506064016020604051808303816000875af1158015610d33573d6000803e3d6000fd5b505050506040513d601f19601f82011682018060405250810190610d5791906111cd565b610d6057600080fd5b600880546001810182556000919091527ff3f7a9fe364faab93b216da50a3214154f22a0a2b415b23a84c8169e8b636ee301829055604051610da59085908590611426565b60405190819003812033825290839087907f4858b9eadbfc5ae09fff2a2b94cde76d0b01a80790699e0ee2ca8ffba4c347039060200160405180910390a45050505050565b600060208284031215610dfc57600080fd5b5035919050565b60005b83811015610e1e578181015183820152602001610e06565b50506000910152565b60008151808452610e3f816020860160208601610e03565b601f01601f19169290920160200192915050565b6001600160a01b03851681526001600160581b038416602082015260ff83166040820152608060608201819052600090610e8f90830184610e27565b9695505050505050565b6001600160581b038516815260ff841660208201526001600160a01b0383166040820152608060608201819052600090610e8f90830184610e27565b60008083601f840112610ee757600080fd5b50813567ffffffffffffffff811115610eff57600080fd5b6020830191508360208260051b8501011115610f1a57600080fd5b9250929050565b600080600060408486031215610f3657600080fd5b83359250602084013567ffffffffffffffff811115610f5457600080fd5b610f6086828701610ed5565b9497909650939450505050565b60008060008060408587031215610f8357600080fd5b843567ffffffffffffffff80821115610f9b57600080fd5b610fa788838901610ed5565b90965094506020870135915080821115610fc057600080fd5b50610fcd87828801610ed5565b95989497509550505050565b634e487b7160e01b600052604160045260246000fd5b60006020828403121561100157600080fd5b813567ffffffffffffffff8082111561101957600080fd5b818401915084601f83011261102d57600080fd5b81358181111561103f5761103f610fd9565b604051601f8201601f19908116603f0116810190838211818310171561106757611067610fd9565b8160405282815287602084870101111561108057600080fd5b826020860160208301376000928101602001929092525095945050505050565b6001600160a01b03861681526001600160601b0385166020820152604081018490526000600384106110e257634e487b7160e01b600052602160045260246000fd5b83606083015260a060808301526110fc60a0830184610e27565b979650505050505050565b600181811c9082168061111b57607f821691505b60208210810361113b57634e487b7160e01b600052602260045260246000fd5b50919050565b634e487b7160e01b600052603260045260246000fd5b6000808335601e1984360301811261116e57600080fd5b83018035915067ffffffffffffffff82111561118957600080fd5b602001915036819003821315610f1a57600080fd5b634e487b7160e01b600052601160045260246000fd5b6000600182016111c6576111c661119e565b5060010190565b6000602082840312156111df57600080fd5b815180151581146111ef57600080fd5b9392505050565b6020815260006111ef6020830184610e27565b601f8211156105d057600081815260208120601f850160051c810160208610156112305750805b601f850160051c820191505b8181101561124f5782815560010161123c565b505050505050565b815167ffffffffffffffff81111561127157611271610fd9565b6112858161127f8454611107565b84611209565b602080601f8311600181146112ba57600084156112a25750858301515b600019600386901b1c1916600185901b17855561124f565b600085815260208120601f198616915b828110156112e9578886015182559484019460019091019084016112ca565b50858210156113075787850151600019600388901b60f8161c191681555b5050505050600190811b01905550565b60008251611329818460208701610e03565b9190910192915050565b838152818360208301376000910160200190815292915050565b808201808211156113605761136061119e565b92915050565b67ffffffffffffffff83111561137e5761137e610fd9565b6113928361138c8354611107565b83611209565b6000601f8411600181146113c657600085156113ae5750838201355b600019600387901b1c1916600186901b1783556106a0565b600083815260209020601f19861690835b828110156113f757868501358255602094850194600190920191016113d7565b50868210156114145760001960f88860031b161c19848701351681555b505060018560011b0183555050505050565b818382376000910190815291905056fea2646970667358221220235613dbbee8d62388389ccf7833909ce5ce6381ff54f55ded6ce516d8ce3bf764736f6c63430008130033",
    "linkReferences": {}
  },
  "methodIdentifiers": {
    "CHALLENGE_COST()": "7de32a43",
    "ITEM_COST()": "26f92b74",
    "PROPOSAL_COST()": "b362dbf6",
    "VOTE_COST()": "fe71b8ba",
    "addItems(bytes32,string[])": "6c9621ba",
    "challengeDuration()": "292f2e0e",
    "challengeItems(bytes32[],string[])": "86e5152a",
    "challenges(bytes32)": "c1e69b66",
    "challengesId(uint256)": "1ebae6f8",
    "challengesLength()": "8199e461",
    "existingChallenge(bytes32)": "8148970d",
    "existingItem(bytes32)": "6ce576e1",
    "existingProposal(bytes32)": "291485b9",
    "getChallengesLengthFromItem(bytes32)": "4692fcf6",
    "getItemsLengthFromProposal(bytes32)": "5042edae",
    "items(bytes32)": "48f343f3",
    "itemsId(uint256)": "da3f8b1b",
    "itemsLength()": "f863208d",
    "proposals(bytes32)": "32ed5b12",
    "proposalsId(uint256)": "476c8801",
    "proposalsLength()": "44c7c867",
    "propose(string)": "aa98df39",
    "token()": "fc0c546a",
    "voting()": "fce1ccca"
  },
  "id": 25
}