{
    "abi": [
        {
            "inputs": [
                {
                    "internalType": "address",
                    "name": "_tokenAddress",
                    "type": "address"
                },
                {
                    "internalType": "address",
                    "name": "_voting",
                    "type": "address"
                }
            ],
            "stateMutability": "nonpayable",
            "type": "constructor"
        },
        {
            "inputs": [],
            "name": "ChallengeAlreadyExists",
            "type": "error"
        },
        {
            "inputs": [],
            "name": "ChallengeDoesNotExist",
            "type": "error"
        },
        {
            "inputs": [],
            "name": "ChallengerIsItemRequester",
            "type": "error"
        },
        {
            "inputs": [],
            "name": "ItemAlreadyExist",
            "type": "error"
        },
        {
            "inputs": [],
            "name": "ItemChallengeExpired",
            "type": "error"
        },
        {
            "inputs": [],
            "name": "ItemDoesNotExist",
            "type": "error"
        },
        {
            "inputs": [],
            "name": "ItemHasPendingChallenge",
            "type": "error"
        },
        {
            "inputs": [],
            "name": "LengthExceeded",
            "type": "error"
        },
        {
            "inputs": [],
            "name": "LengthMismatch",
            "type": "error"
        },
        {
            "inputs": [],
            "name": "NotAuthorized",
            "type": "error"
        },
        {
            "inputs": [],
            "name": "ProposalAlreadyExists",
            "type": "error"
        },
        {
            "inputs": [],
            "name": "ProposalDoesNotExist",
            "type": "error"
        },
        {
            "anonymous": false,
            "inputs": [
                {
                    "indexed": true,
                    "internalType": "bytes32",
                    "name": "proposalId",
                    "type": "bytes32"
                },
                {
                    "indexed": true,
                    "internalType": "bytes32",
                    "name": "itemId",
                    "type": "bytes32"
                },
                {
                    "indexed": true,
                    "internalType": "string",
                    "name": "data",
                    "type": "string"
                }
            ],
            "name": "ItemAdded",
            "type": "event"
        },
        {
            "anonymous": false,
            "inputs": [
                {
                    "indexed": false,
                    "internalType": "address",
                    "name": "challenger",
                    "type": "address"
                },
                {
                    "indexed": true,
                    "internalType": "bytes32",
                    "name": "proposalId",
                    "type": "bytes32"
                },
                {
                    "indexed": true,
                    "internalType": "bytes32",
                    "name": "itemId",
                    "type": "bytes32"
                },
                {
                    "indexed": true,
                    "internalType": "string",
                    "name": "data",
                    "type": "string"
                }
            ],
            "name": "ItemChallenged",
            "type": "event"
        },
        {
            "anonymous": false,
            "inputs": [
                {
                    "indexed": true,
                    "internalType": "bytes32",
                    "name": "proposalId",
                    "type": "bytes32"
                },
                {
                    "indexed": true,
                    "internalType": "address",
                    "name": "requester",
                    "type": "address"
                },
                {
                    "indexed": true,
                    "internalType": "string",
                    "name": "data",
                    "type": "string"
                }
            ],
            "name": "ProposalSubmitted",
            "type": "event"
        },
        {
            "inputs": [],
            "name": "CHALLENGE_COST",
            "outputs": [
                {
                    "internalType": "uint256",
                    "name": "",
                    "type": "uint256"
                }
            ],
            "stateMutability": "view",
            "type": "function"
        },
        {
            "inputs": [],
            "name": "ITEM_COST",
            "outputs": [
                {
                    "internalType": "uint256",
                    "name": "",
                    "type": "uint256"
                }
            ],
            "stateMutability": "view",
            "type": "function"
        },
        {
            "inputs": [],
            "name": "PROPOSAL_COST",
            "outputs": [
                {
                    "internalType": "uint256",
                    "name": "",
                    "type": "uint256"
                }
            ],
            "stateMutability": "view",
            "type": "function"
        },
        {
            "inputs": [],
            "name": "VOTE_COST",
            "outputs": [
                {
                    "internalType": "uint256",
                    "name": "",
                    "type": "uint256"
                }
            ],
            "stateMutability": "view",
            "type": "function"
        },
        {
            "inputs": [
                {
                    "internalType": "bytes32",
                    "name": "proposalId",
                    "type": "bytes32"
                },
                {
                    "internalType": "string[]",
                    "name": "datas",
                    "type": "string[]"
                }
            ],
            "name": "addItems",
            "outputs": [],
            "stateMutability": "nonpayable",
            "type": "function"
        },
        {
            "inputs": [],
            "name": "challengeDuration",
            "outputs": [
                {
                    "internalType": "uint256",
                    "name": "",
                    "type": "uint256"
                }
            ],
            "stateMutability": "view",
            "type": "function"
        },
        {
            "inputs": [
                {
                    "internalType": "bytes32[]",
                    "name": "itemIds",
                    "type": "bytes32[]"
                },
                {
                    "internalType": "string[]",
                    "name": "data",
                    "type": "string[]"
                }
            ],
            "name": "challengeItems",
            "outputs": [],
            "stateMutability": "nonpayable",
            "type": "function"
        },
        {
            "inputs": [
                {
                    "internalType": "bytes32",
                    "name": "",
                    "type": "bytes32"
                }
            ],
            "name": "challenges",
            "outputs": [
                {
                    "internalType": "address",
                    "name": "challenger",
                    "type": "address"
                },
                {
                    "internalType": "uint96",
                    "name": "exists",
                    "type": "uint96"
                },
                {
                    "internalType": "bytes32",
                    "name": "itemId",
                    "type": "bytes32"
                },
                {
                    "internalType": "enum MileysTCRegistries.Status",
                    "name": "status",
                    "type": "uint8"
                },
                {
                    "internalType": "string",
                    "name": "data",
                    "type": "string"
                }
            ],
            "stateMutability": "view",
            "type": "function"
        },
        {
            "inputs": [
                {
                    "internalType": "bytes32",
                    "name": "challengeId",
                    "type": "bytes32"
                }
            ],
            "name": "existingChallenge",
            "outputs": [
                {
                    "internalType": "bool",
                    "name": "",
                    "type": "bool"
                }
            ],
            "stateMutability": "view",
            "type": "function"
        },
        {
            "inputs": [
                {
                    "internalType": "bytes32",
                    "name": "itemId",
                    "type": "bytes32"
                }
            ],
            "name": "existingItem",
            "outputs": [
                {
                    "internalType": "bool",
                    "name": "",
                    "type": "bool"
                }
            ],
            "stateMutability": "view",
            "type": "function"
        },
        {
            "inputs": [
                {
                    "internalType": "bytes32",
                    "name": "proposalId",
                    "type": "bytes32"
                }
            ],
            "name": "existingProposal",
            "outputs": [
                {
                    "internalType": "bool",
                    "name": "",
                    "type": "bool"
                }
            ],
            "stateMutability": "view",
            "type": "function"
        },
        {
            "inputs": [
                {
                    "internalType": "bytes32",
                    "name": "",
                    "type": "bytes32"
                }
            ],
            "name": "items",
            "outputs": [
                {
                    "internalType": "uint88",
                    "name": "challengeExpiration",
                    "type": "uint88"
                },
                {
                    "internalType": "uint8",
                    "name": "pendingChallenge",
                    "type": "uint8"
                },
                {
                    "internalType": "address",
                    "name": "requester",
                    "type": "address"
                },
                {
                    "internalType": "string",
                    "name": "data",
                    "type": "string"
                }
            ],
            "stateMutability": "view",
            "type": "function"
        },
        {
            "inputs": [
                {
                    "internalType": "bytes32",
                    "name": "",
                    "type": "bytes32"
                }
            ],
            "name": "proposals",
            "outputs": [
                {
                    "internalType": "address",
                    "name": "requester",
                    "type": "address"
                },
                {
                    "internalType": "uint88",
                    "name": "totalDeposit",
                    "type": "uint88"
                },
                {
                    "internalType": "uint8",
                    "name": "exists",
                    "type": "uint8"
                },
                {
                    "internalType": "string",
                    "name": "data",
                    "type": "string"
                }
            ],
            "stateMutability": "view",
            "type": "function"
        },
        {
            "inputs": [
                {
                    "internalType": "string",
                    "name": "data",
                    "type": "string"
                }
            ],
            "name": "propose",
            "outputs": [],
            "stateMutability": "nonpayable",
            "type": "function"
        },
        {
            "inputs": [],
            "name": "token",
            "outputs": [
                {
                    "internalType": "address",
                    "name": "",
                    "type": "address"
                }
            ],
            "stateMutability": "view",
            "type": "function"
        },
        {
            "inputs": [],
            "name": "voting",
            "outputs": [
                {
                    "internalType": "contract MileysTCRVoting",
                    "name": "",
                    "type": "address"
                }
            ],
            "stateMutability": "view",
            "type": "function"
        }
    ],
    "bytecode": {
        "object": "0x608060405262278d0060025534801561001757600080fd5b5060405161142738038061142783398101604081905261003691610083565b600080546001600160a01b039384166001600160a01b031991821617909155600180549290931691161790556100b6565b80516001600160a01b038116811461007e57600080fd5b919050565b6000806040838503121561009657600080fd5b61009f83610067565b91506100ad60208401610067565b90509250929050565b611362806100c56000396000f3fe608060405234801561001057600080fd5b50600436106101005760003560e01c80638148970d11610097578063c1e69b6611610066578063c1e69b6614610243578063fc0c546a14610267578063fce1ccca14610292578063fe71b8ba1461010557600080fd5b80638148970d146101db57806386e5152a1461020e578063aa98df3914610221578063b362dbf61461023457600080fd5b806348f343f3116100d357806348f343f3146101905780636c9621ba146101b35780636ce576e1146101c85780637de32a431461010557600080fd5b806326f92b7414610105578063291485b914610127578063292f2e0e1461016457806332ed5b121461016d575b600080fd5b61011467016345785d8a000081565b6040519081526020015b60405180910390f35b610154610135366004610d8a565b600090815260036020526040902054600160f81b900460ff1660011490565b604051901515815260200161011e565b61011460025481565b61018061017b366004610d8a565b6102a5565b60405161011e9493929190610df3565b6101a361019e366004610d8a565b610370565b60405161011e9493929190610e39565b6101c66101c1366004610ec1565b6103b8565b005b6101546101d6366004610d8a565b6104b5565b6101546101e9366004610d8a565b600090815260046020526040902054600160a01b90046001600160601b031660011490565b6101c661021c366004610f0d565b6104d9565b6101c661022f366004610f8f565b610587565b610114670de0b6b3a764000081565b610256610251366004610d8a565b610756565b60405161011e959493929190611056565b60005461027a906001600160a01b031681565b6040516001600160a01b03909116815260200161011e565b60015461027a906001600160a01b031681565b600360205260009081526040902080546001820180546001600160a01b03831693600160a01b84046001600160581b031693600160f81b900460ff169290916102ed906110bd565b80601f0160208091040260200160405190810160405280929190818152602001828054610319906110bd565b80156103665780601f1061033b57610100808354040283529160200191610366565b820191906000526020600020905b81548152906001019060200180831161034957829003601f168201915b5050505050905084565b600560205260009081526040902080546001820180546001600160581b03831693600160581b840460ff1693600160601b90046001600160a01b03169290916102ed906110bd565b600a8111156103da57604051630e0ca17360e31b815260040160405180910390fd5b60005b8181101561042457610412848484848181106103fb576103fb6110f7565b905060200281019061040d919061110d565b610827565b8061041c8161116a565b9150506103dd565b506000546040516323b872dd60e01b815233600482015230602482015267016345785d8a000060448201526001600160a01b03909116906323b872dd906064016020604051808303816000875af1158015610483573d6000803e3d6000fd5b505050506040513d601f19601f820116820180604052508101906104a79190611183565b6104b057600080fd5b505050565b600090815260056020526040902054600160601b90046001600160a01b0316151590565b600a8311156104fb57604051630e0ca17360e31b815260040160405180910390fd5b82811461051e576040516001621398b960e31b0319815260040160405180910390fd5b60005b838110156105805761056e85858381811061053e5761053e6110f7565b90506020020135848484818110610557576105576110f7565b9050602002810190610569919061110d565b6109fb565b806105788161116a565b915050610521565b5050505050565b60008160405160200161059a91906111ac565b60408051601f19818403018152918152815160209283012060008181526003909352912054909150600160f81b900460ff166001036105ec57604051635c61cf3160e11b815260040160405180910390fd5b60408051608081018252338152670de0b6b3a764000060208083018281526001848601818152606086018981526000898152600390955296909320855181549351945160ff16600160f81b026001600160f81b036001600160581b0396909616600160a01b026001600160f81b03199095166001600160a01b039290921691909117939093179390931691909117825593519193909190820190610690908261120d565b50506000546040516323b872dd60e01b8152336004820152306024820152604481018490526001600160a01b0390911691506323b872dd906064016020604051808303816000875af11580156106ea573d6000803e3d6000fd5b505050506040513d601f19601f8201168201806040525081019061070e9190611183565b508260405161071d91906112cd565b60405190819003812090339084907fe3d9c91fef9ec1a5517b77d8f83af57508342220388c74d079df56bb9c5349e090600090a4505050565b60046020526000908152604090208054600182015460028301546003840180546001600160a01b03851695600160a01b9095046001600160601b03169460ff9093169291906107a4906110bd565b80601f01602080910402602001604051908101604052809291908181526020018280546107d0906110bd565b801561081d5780601f106107f25761010080835404028352916020019161081d565b820191906000526020600020905b81548152906001019060200180831161080057829003601f168201915b5050505050905085565b600083815260036020526040902054600160f81b900460ff1660011461086057604051636ce3c70160e11b815260040160405180910390fd5b6000838383604051602001610877939291906112e9565b604051602081830303815290604052805190602001209050610898816104b5565b156108b657604051633c6256b560e21b815260040160405180910390fd5b6040518060800160405280600254426108cf9190611303565b6001600160581b03168152602001600060ff168152602001336001600160a01b0316815260200184848080601f0160208091040260200160405190810160405280939291908181526020018383808284376000920182905250939094525050838152600560209081526040918290208451815492860151938601516001600160a01b0316600160601b026001600160601b0360ff909516600160581b026bffffffffffffffffffffffff199094166001600160581b03909216919091179290921792909216178155606083015190915060018201906109ae908261120d565b50506040516109c191508490849061131c565b60405190819003812090829086907fa414b109cdce8a3d86c7ee633dbb4fd68a4b34f4700cfd21254d17c4e61c6ddf90600090a450505050565b610a04836104b5565b1515600003610a2657604051639a749d8160e01b815260040160405180910390fd5b6000838152600560205260409020546001600160581b0316421115610a5e576040516331dd60bb60e11b815260040160405180910390fd5b600083815260056020526040902054600160581b900460ff16600103610a97576040516367599ef560e01b815260040160405180910390fd5b60008381526005602052604090205433600160601b9091046001600160a01b031603610ad65760405163029285b560e11b815260040160405180910390fd5b6000838383604051602001610aed939291906112e9565b60408051601f19818403018152918152815160209283012060008181526004909352912054909150600160a01b90046001600160601b0316600103610b4557604051634450435760e01b815260040160405180910390fd5b6040805160a08101825233815260016020820152908101859052606081016000815260200184848080601f0160208091040260200160405190810160405280939291908181526020018383808284376000920182905250939094525050838152600460209081526040918290208451918501516001600160601b0316600160a01b026001600160a01b03909216919091178155908301516001808301919091556060840151600280840180549495509193919260ff1990921691908490811115610c1157610c11611040565b021790555060808201516003820190610c2a908261120d565b50505060008481526005602052604090819020805460ff60581b1916600160581b1790556001549051632c28d80960e01b8152600481018390526001600160a01b0390911690632c28d80990602401600060405180830381600087803b158015610c9357600080fd5b505af1158015610ca7573d6000803e3d6000fd5b50506000546040516323b872dd60e01b815233600482015230602482015267016345785d8a000060448201526001600160a01b0390911692506323b872dd91506064016020604051808303816000875af1158015610d09573d6000803e3d6000fd5b505050506040513d601f19601f82011682018060405250810190610d2d9190611183565b610d3657600080fd5b8282604051610d4692919061131c565b60405190819003812033825290829086907f4858b9eadbfc5ae09fff2a2b94cde76d0b01a80790699e0ee2ca8ffba4c347039060200160405180910390a450505050565b600060208284031215610d9c57600080fd5b5035919050565b60005b83811015610dbe578181015183820152602001610da6565b50506000910152565b60008151808452610ddf816020860160208601610da3565b601f01601f19169290920160200192915050565b6001600160a01b03851681526001600160581b038416602082015260ff83166040820152608060608201819052600090610e2f90830184610dc7565b9695505050505050565b6001600160581b038516815260ff841660208201526001600160a01b0383166040820152608060608201819052600090610e2f90830184610dc7565b60008083601f840112610e8757600080fd5b50813567ffffffffffffffff811115610e9f57600080fd5b6020830191508360208260051b8501011115610eba57600080fd5b9250929050565b600080600060408486031215610ed657600080fd5b83359250602084013567ffffffffffffffff811115610ef457600080fd5b610f0086828701610e75565b9497909650939450505050565b60008060008060408587031215610f2357600080fd5b843567ffffffffffffffff80821115610f3b57600080fd5b610f4788838901610e75565b90965094506020870135915080821115610f6057600080fd5b50610f6d87828801610e75565b95989497509550505050565b634e487b7160e01b600052604160045260246000fd5b600060208284031215610fa157600080fd5b813567ffffffffffffffff80821115610fb957600080fd5b818401915084601f830112610fcd57600080fd5b813581811115610fdf57610fdf610f79565b604051601f8201601f19908116603f0116810190838211818310171561100757611007610f79565b8160405282815287602084870101111561102057600080fd5b826020860160208301376000928101602001929092525095945050505050565b634e487b7160e01b600052602160045260246000fd5b6001600160a01b03861681526001600160601b03851660208201526040810184905260006003841061109857634e487b7160e01b600052602160045260246000fd5b83606083015260a060808301526110b260a0830184610dc7565b979650505050505050565b600181811c908216806110d157607f821691505b6020821081036110f157634e487b7160e01b600052602260045260246000fd5b50919050565b634e487b7160e01b600052603260045260246000fd5b6000808335601e1984360301811261112457600080fd5b83018035915067ffffffffffffffff82111561113f57600080fd5b602001915036819003821315610eba57600080fd5b634e487b7160e01b600052601160045260246000fd5b60006001820161117c5761117c611154565b5060010190565b60006020828403121561119557600080fd5b815180151581146111a557600080fd5b9392505050565b6020815260006111a56020830184610dc7565b601f8211156104b057600081815260208120601f850160051c810160208610156111e65750805b601f850160051c820191505b81811015611205578281556001016111f2565b505050505050565b815167ffffffffffffffff81111561122757611227610f79565b61123b8161123584546110bd565b846111bf565b602080601f83116001811461127057600084156112585750858301515b600019600386901b1c1916600185901b178555611205565b600085815260208120601f198616915b8281101561129f57888601518255948401946001909101908401611280565b50858210156112bd5787850151600019600388901b60f8161c191681555b5050505050600190811b01905550565b600082516112df818460208701610da3565b9190910192915050565b838152818360208301376000910160200190815292915050565b8082018082111561131657611316611154565b92915050565b818382376000910190815291905056fea26469706673582212201bb20698c0e9789f41fdbde3c5be8ace6a1ce33e0342f2b04ca5f100f2cf522c64736f6c63430008130033",
        "linkReferences": {}
    },
    "methodIdentifiers": {
        "CHALLENGE_COST()": "7de32a43",
        "ITEM_COST()": "26f92b74",
        "PROPOSAL_COST()": "b362dbf6",
        "VOTE_COST()": "fe71b8ba",
        "addItems(bytes32,string[])": "6c9621ba",
        "challengeDuration()": "292f2e0e",
        "challengeItems(bytes32[],string[])": "86e5152a",
        "challenges(bytes32)": "c1e69b66",
        "existingChallenge(bytes32)": "8148970d",
        "existingItem(bytes32)": "6ce576e1",
        "existingProposal(bytes32)": "291485b9",
        "items(bytes32)": "48f343f3",
        "proposals(bytes32)": "32ed5b12",
        "propose(string)": "aa98df39",
        "token()": "fc0c546a",
        "voting()": "fce1ccca"
    },
    "id": 23
}