{
    "abi": [
        {
            "inputs": [
                {
                    "internalType": "address",
                    "name": "_token",
                    "type": "address"
                },
                {
                    "internalType": "address",
                    "name": "_registry",
                    "type": "address"
                }
            ],
            "stateMutability": "nonpayable",
            "type": "constructor"
        },
        {
            "inputs": [],
            "name": "CommitPeriodEnded",
            "type": "error"
        },
        {
            "inputs": [],
            "name": "InsufficientVotingPower",
            "type": "error"
        },
        {
            "inputs": [],
            "name": "InvalidCommitHash",
            "type": "error"
        },
        {
            "inputs": [],
            "name": "PollAlreadyStarted",
            "type": "error"
        },
        {
            "inputs": [],
            "name": "PollDoesNotExist",
            "type": "error"
        },
        {
            "anonymous": false,
            "inputs": [
                {
                    "indexed": false,
                    "internalType": "uint256",
                    "name": "id",
                    "type": "uint256"
                },
                {
                    "indexed": true,
                    "internalType": "bytes32",
                    "name": "challengeId",
                    "type": "bytes32"
                }
            ],
            "name": "PollStarted",
            "type": "event"
        },
        {
            "anonymous": false,
            "inputs": [
                {
                    "indexed": true,
                    "internalType": "uint256",
                    "name": "pollID",
                    "type": "uint256"
                },
                {
                    "indexed": true,
                    "internalType": "address",
                    "name": "voter",
                    "type": "address"
                }
            ],
            "name": "TokensRescued",
            "type": "event"
        },
        {
            "anonymous": false,
            "inputs": [
                {
                    "indexed": true,
                    "internalType": "uint256",
                    "name": "pollID",
                    "type": "uint256"
                },
                {
                    "indexed": false,
                    "internalType": "uint256",
                    "name": "numTokens",
                    "type": "uint256"
                },
                {
                    "indexed": true,
                    "internalType": "address",
                    "name": "voter",
                    "type": "address"
                }
            ],
            "name": "VoteCommitted",
            "type": "event"
        },
        {
            "anonymous": false,
            "inputs": [
                {
                    "indexed": true,
                    "internalType": "uint256",
                    "name": "pollID",
                    "type": "uint256"
                },
                {
                    "indexed": false,
                    "internalType": "uint256",
                    "name": "numTokens",
                    "type": "uint256"
                },
                {
                    "indexed": false,
                    "internalType": "uint256",
                    "name": "votesFor",
                    "type": "uint256"
                },
                {
                    "indexed": false,
                    "internalType": "uint256",
                    "name": "votesAgainst",
                    "type": "uint256"
                },
                {
                    "indexed": true,
                    "internalType": "enum MileysTCRVoting.Party",
                    "name": "choice",
                    "type": "uint8"
                },
                {
                    "indexed": true,
                    "internalType": "address",
                    "name": "voter",
                    "type": "address"
                },
                {
                    "indexed": false,
                    "internalType": "uint256",
                    "name": "salt",
                    "type": "uint256"
                }
            ],
            "name": "VoteRevealed",
            "type": "event"
        },
        {
            "anonymous": false,
            "inputs": [
                {
                    "indexed": false,
                    "internalType": "uint256",
                    "name": "amount",
                    "type": "uint256"
                },
                {
                    "indexed": true,
                    "internalType": "address",
                    "name": "user",
                    "type": "address"
                }
            ],
            "name": "VotingRightsGranted",
            "type": "event"
        },
        {
            "anonymous": false,
            "inputs": [
                {
                    "indexed": false,
                    "internalType": "uint256",
                    "name": "amount",
                    "type": "uint256"
                },
                {
                    "indexed": true,
                    "internalType": "address",
                    "name": "user",
                    "type": "address"
                }
            ],
            "name": "VotingRightsWithdrawn",
            "type": "event"
        },
        {
            "inputs": [
                {
                    "internalType": "address",
                    "name": "_user",
                    "type": "address"
                },
                {
                    "internalType": "uint256",
                    "name": "_pollID",
                    "type": "uint256"
                }
            ],
            "name": "attrUUID",
            "outputs": [
                {
                    "internalType": "bytes32",
                    "name": "",
                    "type": "bytes32"
                }
            ],
            "stateMutability": "pure",
            "type": "function"
        },
        {
            "inputs": [],
            "name": "commitDuration",
            "outputs": [
                {
                    "internalType": "uint256",
                    "name": "",
                    "type": "uint256"
                }
            ],
            "stateMutability": "view",
            "type": "function"
        },
        {
            "inputs": [
                {
                    "internalType": "uint256",
                    "name": "_pollID",
                    "type": "uint256"
                }
            ],
            "name": "commitPeriodActive",
            "outputs": [
                {
                    "internalType": "bool",
                    "name": "",
                    "type": "bool"
                }
            ],
            "stateMutability": "view",
            "type": "function"
        },
        {
            "inputs": [
                {
                    "internalType": "uint256",
                    "name": "_pollID",
                    "type": "uint256"
                },
                {
                    "internalType": "bytes32",
                    "name": "_secretHash",
                    "type": "bytes32"
                },
                {
                    "internalType": "uint256",
                    "name": "_numTokens",
                    "type": "uint256"
                },
                {
                    "internalType": "uint256",
                    "name": "_prevPollID",
                    "type": "uint256"
                }
            ],
            "name": "commitVote",
            "outputs": [],
            "stateMutability": "nonpayable",
            "type": "function"
        },
        {
            "inputs": [
                {
                    "internalType": "uint256[]",
                    "name": "_pollIDs",
                    "type": "uint256[]"
                },
                {
                    "internalType": "bytes32[]",
                    "name": "_secretHashes",
                    "type": "bytes32[]"
                },
                {
                    "internalType": "uint256[]",
                    "name": "_numsTokens",
                    "type": "uint256[]"
                },
                {
                    "internalType": "uint256[]",
                    "name": "_prevPollIDs",
                    "type": "uint256[]"
                }
            ],
            "name": "commitVotes",
            "outputs": [],
            "stateMutability": "nonpayable",
            "type": "function"
        },
        {
            "inputs": [
                {
                    "internalType": "address",
                    "name": "_voter",
                    "type": "address"
                },
                {
                    "internalType": "uint256",
                    "name": "_pollID",
                    "type": "uint256"
                }
            ],
            "name": "getCommitHash",
            "outputs": [
                {
                    "internalType": "bytes32",
                    "name": "",
                    "type": "bytes32"
                }
            ],
            "stateMutability": "view",
            "type": "function"
        },
        {
            "inputs": [
                {
                    "internalType": "address",
                    "name": "_voter",
                    "type": "address"
                },
                {
                    "internalType": "uint256",
                    "name": "_numTokens",
                    "type": "uint256"
                },
                {
                    "internalType": "uint256",
                    "name": "_pollID",
                    "type": "uint256"
                }
            ],
            "name": "getInsertPointForNumTokens",
            "outputs": [
                {
                    "internalType": "uint256",
                    "name": "",
                    "type": "uint256"
                }
            ],
            "stateMutability": "view",
            "type": "function"
        },
        {
            "inputs": [
                {
                    "internalType": "address",
                    "name": "_voter",
                    "type": "address"
                }
            ],
            "name": "getLastNode",
            "outputs": [
                {
                    "internalType": "uint256",
                    "name": "",
                    "type": "uint256"
                }
            ],
            "stateMutability": "view",
            "type": "function"
        },
        {
            "inputs": [
                {
                    "internalType": "address",
                    "name": "_voter",
                    "type": "address"
                }
            ],
            "name": "getLockedTokens",
            "outputs": [
                {
                    "internalType": "uint256",
                    "name": "",
                    "type": "uint256"
                }
            ],
            "stateMutability": "view",
            "type": "function"
        },
        {
            "inputs": [
                {
                    "internalType": "address",
                    "name": "_voter",
                    "type": "address"
                },
                {
                    "internalType": "uint256",
                    "name": "_pollID",
                    "type": "uint256"
                }
            ],
            "name": "getNumTokens",
            "outputs": [
                {
                    "internalType": "uint256",
                    "name": "",
                    "type": "uint256"
                }
            ],
            "stateMutability": "view",
            "type": "function"
        },
        {
            "inputs": [
                {
                    "internalType": "uint256",
                    "name": "_pollID",
                    "type": "uint256"
                }
            ],
            "name": "getTotalNumberOfTokensForWinningOption",
            "outputs": [
                {
                    "internalType": "uint256",
                    "name": "",
                    "type": "uint256"
                }
            ],
            "stateMutability": "view",
            "type": "function"
        },
        {
            "inputs": [
                {
                    "internalType": "uint256",
                    "name": "_terminationDate",
                    "type": "uint256"
                }
            ],
            "name": "isExpired",
            "outputs": [
                {
                    "internalType": "bool",
                    "name": "",
                    "type": "bool"
                }
            ],
            "stateMutability": "view",
            "type": "function"
        },
        {
            "inputs": [
                {
                    "internalType": "uint256",
                    "name": "_pollID",
                    "type": "uint256"
                }
            ],
            "name": "isPassed",
            "outputs": [
                {
                    "internalType": "bool",
                    "name": "passed",
                    "type": "bool"
                }
            ],
            "stateMutability": "view",
            "type": "function"
        },
        {
            "inputs": [],
            "name": "minQuorum",
            "outputs": [
                {
                    "internalType": "uint256",
                    "name": "",
                    "type": "uint256"
                }
            ],
            "stateMutability": "view",
            "type": "function"
        },
        {
            "inputs": [
                {
                    "internalType": "uint256",
                    "name": "_pollID",
                    "type": "uint256"
                }
            ],
            "name": "pollEnded",
            "outputs": [
                {
                    "internalType": "bool",
                    "name": "",
                    "type": "bool"
                }
            ],
            "stateMutability": "view",
            "type": "function"
        },
        {
            "inputs": [
                {
                    "internalType": "uint256",
                    "name": "_pollID",
                    "type": "uint256"
                }
            ],
            "name": "pollExists",
            "outputs": [
                {
                    "internalType": "bool",
                    "name": "",
                    "type": "bool"
                }
            ],
            "stateMutability": "view",
            "type": "function"
        },
        {
            "inputs": [],
            "name": "pollId",
            "outputs": [
                {
                    "internalType": "uint256",
                    "name": "",
                    "type": "uint256"
                }
            ],
            "stateMutability": "view",
            "type": "function"
        },
        {
            "inputs": [
                {
                    "internalType": "uint256",
                    "name": "",
                    "type": "uint256"
                }
            ],
            "name": "polls",
            "outputs": [
                {
                    "internalType": "bytes32",
                    "name": "challengeId",
                    "type": "bytes32"
                },
                {
                    "internalType": "uint256",
                    "name": "commitEndDate",
                    "type": "uint256"
                },
                {
                    "internalType": "uint256",
                    "name": "revealEndDate",
                    "type": "uint256"
                },
                {
                    "internalType": "uint256",
                    "name": "quorum",
                    "type": "uint256"
                },
                {
                    "internalType": "uint256",
                    "name": "votesForChallenger",
                    "type": "uint256"
                },
                {
                    "internalType": "uint256",
                    "name": "votesForRequester",
                    "type": "uint256"
                }
            ],
            "stateMutability": "view",
            "type": "function"
        },
        {
            "inputs": [],
            "name": "registry",
            "outputs": [
                {
                    "internalType": "contract MileysTCRegistries",
                    "name": "",
                    "type": "address"
                }
            ],
            "stateMutability": "view",
            "type": "function"
        },
        {
            "inputs": [
                {
                    "internalType": "uint256",
                    "name": "amount",
                    "type": "uint256"
                }
            ],
            "name": "requestVotingRights",
            "outputs": [],
            "stateMutability": "nonpayable",
            "type": "function"
        },
        {
            "inputs": [
                {
                    "internalType": "uint256",
                    "name": "_pollID",
                    "type": "uint256"
                }
            ],
            "name": "rescueTokens",
            "outputs": [],
            "stateMutability": "nonpayable",
            "type": "function"
        },
        {
            "inputs": [
                {
                    "internalType": "uint256[]",
                    "name": "_pollIDs",
                    "type": "uint256[]"
                }
            ],
            "name": "rescueTokensInMultiplePolls",
            "outputs": [],
            "stateMutability": "nonpayable",
            "type": "function"
        },
        {
            "inputs": [],
            "name": "revealDuration",
            "outputs": [
                {
                    "internalType": "uint256",
                    "name": "",
                    "type": "uint256"
                }
            ],
            "stateMutability": "view",
            "type": "function"
        },
        {
            "inputs": [
                {
                    "internalType": "uint256",
                    "name": "_pollID",
                    "type": "uint256"
                }
            ],
            "name": "revealPeriodActive",
            "outputs": [
                {
                    "internalType": "bool",
                    "name": "",
                    "type": "bool"
                }
            ],
            "stateMutability": "view",
            "type": "function"
        },
        {
            "inputs": [
                {
                    "internalType": "uint256",
                    "name": "_pollID",
                    "type": "uint256"
                },
                {
                    "internalType": "enum MileysTCRVoting.Party",
                    "name": "_voteOption",
                    "type": "uint8"
                },
                {
                    "internalType": "uint256",
                    "name": "_salt",
                    "type": "uint256"
                }
            ],
            "name": "revealVote",
            "outputs": [],
            "stateMutability": "nonpayable",
            "type": "function"
        },
        {
            "inputs": [
                {
                    "internalType": "uint256[]",
                    "name": "_pollIDs",
                    "type": "uint256[]"
                },
                {
                    "internalType": "enum MileysTCRVoting.Party[]",
                    "name": "_voteOptions",
                    "type": "uint8[]"
                },
                {
                    "internalType": "uint256[]",
                    "name": "_salts",
                    "type": "uint256[]"
                }
            ],
            "name": "revealVotes",
            "outputs": [],
            "stateMutability": "nonpayable",
            "type": "function"
        },
        {
            "inputs": [
                {
                    "internalType": "bytes32",
                    "name": "_challengeId",
                    "type": "bytes32"
                }
            ],
            "name": "startPoll",
            "outputs": [],
            "stateMutability": "nonpayable",
            "type": "function"
        },
        {
            "inputs": [],
            "name": "token",
            "outputs": [
                {
                    "internalType": "contract IERC20",
                    "name": "",
                    "type": "address"
                }
            ],
            "stateMutability": "view",
            "type": "function"
        },
        {
            "inputs": [
                {
                    "internalType": "uint256",
                    "name": "_prevID",
                    "type": "uint256"
                },
                {
                    "internalType": "uint256",
                    "name": "_nextID",
                    "type": "uint256"
                },
                {
                    "internalType": "address",
                    "name": "_voter",
                    "type": "address"
                },
                {
                    "internalType": "uint256",
                    "name": "_numTokens",
                    "type": "uint256"
                }
            ],
            "name": "validPosition",
            "outputs": [
                {
                    "internalType": "bool",
                    "name": "",
                    "type": "bool"
                }
            ],
            "stateMutability": "view",
            "type": "function"
        },
        {
            "inputs": [
                {
                    "internalType": "address",
                    "name": "",
                    "type": "address"
                }
            ],
            "name": "voteTokenBalance",
            "outputs": [
                {
                    "internalType": "uint256",
                    "name": "",
                    "type": "uint256"
                }
            ],
            "stateMutability": "view",
            "type": "function"
        },
        {
            "inputs": [
                {
                    "internalType": "uint256",
                    "name": "amount",
                    "type": "uint256"
                }
            ],
            "name": "withdrawVotingRights",
            "outputs": [],
            "stateMutability": "nonpayable",
            "type": "function"
        }
    ],
    "bytecode": {
        "object": "0x608060405260646004556212750060055562093a806006553480156200002457600080fd5b5060405162001ce138038062001ce1833981016040819052620000479162000096565b600080546001600160a01b039384166001600160a01b03199182161790915560018054929093169116179055620000ce565b80516001600160a01b03811681146200009157600080fd5b919050565b60008060408385031215620000aa57600080fd5b620000b58362000079565b9150620000c56020840162000079565b90509250929050565b611c0380620000de6000396000f3fe608060405234801561001057600080fd5b50600436106101e55760003560e01c8063886a6de11161010f578063b5a127e5116100a2578063d9548e5311610071578063d9548e531461046a578063e7b1d43c1461047d578063ee68483014610490578063fc0c546a146104a357600080fd5b8063b5a127e514610428578063bb11ed7e14610431578063d138209214610444578063d901402b1461045757600080fd5b8063a1103f37116100de578063a1103f371461037f578063a25236fe14610392578063a4439dc5146103a5578063ac2f0074146103b857600080fd5b8063886a6de11461033d57806388d21ff3146103465780638c55743114610359578063976035601461036c57600080fd5b8063441c77c0116101875780636f13ab00116101565780636f13ab00146102ed5780636f833811146102f65780637b103999146102ff578063819b02931461032a57600080fd5b8063441c77c01461029157806349403183146102b45780636b2d95d4146102c75780636cbf9c5e146102da57600080fd5b80632c28d809116101c35780632c28d809146102385780633b9302941461024b5780633ec36b991461026b578063427fa1d21461027e57600080fd5b8063053e71a6146101ea5780630f111324146102105780632c05203114610225575b600080fd5b6101fd6101f8366004611676565b6104b6565b6040519081526020015b60405180910390f35b61022361021e36600461169e565b610509565b005b6101fd6102333660046116ea565b61077a565b610223610246366004611676565b6108fe565b6101fd61025936600461171d565b60096020526000908152604090205481565b610223610279366004611784565b610a37565b6101fd61028c36600461171d565b610aef565b6102a461029f366004611676565b610b89565b6040519015158152602001610207565b6102a46102c2366004611676565b610bc9565b6101fd6102d536600461171d565b610c26565b6102236102e8366004611848565b610c35565b6101fd60075481565b6101fd60055481565b600154610312906001600160a01b031681565b6040516001600160a01b039091168152602001610207565b6102a461033836600461187a565b611028565b6101fd60065481565b6102a4610354366004611676565b611069565b6102236103673660046118b7565b61107e565b61022361037a366004611676565b61111d565b6101fd61038d366004611951565b61127a565b6102236103a0366004611676565b6112c1565b6102a46103b3366004611676565b6113a1565b6103fb6103c6366004611676565b600860205260009081526040902080546001820154600283015460038401546004850154600590950154939492939192909186565b604080519687526020870195909552938501929092526060840152608083015260a082015260c001610207565b6101fd60045481565b61022361043f36600461197b565b6113ba565b6101fd610452366004611951565b6113fd565b6101fd610465366004611951565b611483565b6102a4610478366004611676565b421190565b61022361048b366004611676565b6114c8565b6102a461049e366004611676565b6115d7565b600054610312906001600160a01b031681565b60006104c1826115d7565b6104ca57600080fd5b6104d382610bc9565b156104ee575060009081526008602052604090206004015490565b5060009081526008602052604090206005015490565b919050565b61051283610b89565b61051b57600080fd5b600083815260086020908152604080832033845260060190915290205460ff1661054457600080fd5b600083815260086020908152604080832033845260070190915290205460ff161561056e57600080fd5b6105783384611483565b828260405160200161058b9291906119d3565b60405160208183030381529060405280519060200120146105ab57600080fd5b60006105b733856113fd565b905060018360018111156105cd576105cd6119bd565b036105fe57600084815260086020526040812060040180548392906105f3908490611a1d565b909155506106259050565b6000848152600860205260408120600501805483929061061f908490611a1d565b90915550505b336000908152600360205260409081902090516306d900ed60e41b815260048101919091526024810185905273__$ee8ca919bc4d47201a12ba3dd017c700b5$__90636d900ed09060440160006040518083038186803b15801561068857600080fd5b505af415801561069c573d6000803e3d6000fd5b50505060008581526008602081815260408084203385526007810183528185208054600160ff1991821681179092559190940190925290922080548794509092169083818111156106ef576106ef6119bd565b021790555033836001811115610707576107076119bd565b600086815260086020526040908190206004810154600590910154915188927fd3cf2f3f83e866c262b73537fed28f74bc71e13d00db15e2f7644a87b1c99e3b9261076c928892908a9093845260208401929092526040830152606082015260800190565b60405180910390a450505050565b60008061078685610aef565b9050600061079486836113fd565b90505b81156108f3576107a786836113fd565b90508481116108575783820361084f576001600160a01b03861660009081526003602052604090819020905163187f050560e11b815260048101919091526024810183905273__$ee8ca919bc4d47201a12ba3dd017c700b5$__906330fe0a0a90604401602060405180830381865af4158015610828573d6000803e3d6000fd5b505050506040513d601f19601f8201168201806040525081019061084c9190611a30565b91505b5090506108f7565b6001600160a01b03861660009081526003602052604090819020905163187f050560e11b815260048101919091526024810183905273__$ee8ca919bc4d47201a12ba3dd017c700b5$__906330fe0a0a90604401602060405180830381865af41580156108c8573d6000803e3d6000fd5b505050506040513d601f19601f820116820180604052508101906108ec9190611a30565b9150610797565b5090505b9392505050565b6001546001600160a01b031633146109685760405162461bcd60e51b8152602060048201526024808201527f4f6e6c792072656769737472792063616e2063616c6c20746869732066756e636044820152633a34b7b760e11b606482015260840160405180910390fd5b6007548061097581611a49565b6000818152600860205260409020600101549092501590506109aa5760405163690dfbb960e01b815260040160405180910390fd5b60008181526008602052604090208281556005544291906109cb9083611a1d565b60018201556006546005546109e09084611a1d565b6109ea9190611a1d565b60028201556004546003820155600783905560405183815284907f5a3e730d0a1d48aa823d514a66ebf0af77516e37423b14fd1a67c9c657ec67ac9060200160405180910390a250505050565b868514610a4357600080fd5b868314610a4f57600080fd5b868114610a5b57600080fd5b60005b87811015610ae457610ad2898983818110610a7b57610a7b611a62565b90506020020135888884818110610a9457610a94611a62565b90506020020135878785818110610aad57610aad611a62565b90506020020135868686818110610ac657610ac6611a62565b90506020020135610c35565b80610adc81611a49565b915050610a5e565b505050505050505050565b6001600160a01b038116600090815260036020526040808220905163187f050560e11b815260048101919091526024810182905273__$ee8ca919bc4d47201a12ba3dd017c700b5$__906330fe0a0a90604401602060405180830381865af4158015610b5f573d6000803e3d6000fd5b505050506040513d601f19601f82011682018060405250810190610b839190611a30565b92915050565b6000610b9482611069565b610b9d57600080fd5b6000828152600860205260409020600201544211158015610b835750610bc2826113a1565b1592915050565b6000610bd4826115d7565b610bdd57600080fd5b600082815260086020526040902060058101546004820154610bff9190611a1d565b8160030154610c0e9190611a78565b6004820154610c1e906064611a78565b119392505050565b6000610b838261045284610aef565b610c3f8484611604565b33600090815260096020526040902054821115610c7d5733600090815260096020526040812054610c709084611a8f565b9050610c7b816112c1565b505b801580610d11575033600090815260036020526040908190209051631b352dd160e11b815260048101919091526024810182905273__$ee8ca919bc4d47201a12ba3dd017c700b5$__9063366a5ba290604401602060405180830381865af4158015610ced573d6000803e3d6000fd5b505050506040513d601f19601f82011682018060405250810190610d119190611aa2565b610d1a57600080fd5b3360009081526003602052604080822090516307d29ac960e01b815260048101919091526024810183905273__$ee8ca919bc4d47201a12ba3dd017c700b5$__906307d29ac990604401602060405180830381865af4158015610d81573d6000803e3d6000fd5b505050506040513d601f19601f82011682018060405250810190610da59190611a30565b9050848103610e3d57336000908152600360205260409081902090516307d29ac960e01b815260048101919091526024810186905273__$ee8ca919bc4d47201a12ba3dd017c700b5$__906307d29ac990604401602060405180830381865af4158015610e16573d6000803e3d6000fd5b505050506040513d601f19601f82011682018060405250810190610e3a9190611a30565b90505b610e4982823386611028565b610e5257600080fd5b33600090815260036020526040908190209051639735c51b60e01b8152600481019190915260248101839052604481018690526064810182905273__$ee8ca919bc4d47201a12ba3dd017c700b5$__90639735c51b9060840160006040518083038186803b158015610ec357600080fd5b505af4158015610ed7573d6000803e3d6000fd5b505050506000610ee7338761127a565b604051633e3d089160e21b815290915073__$74ee30a61acd0006932adb7844f82c8730$__9063f8f4224490610f269060029085908990600401611ac4565b60006040518083038186803b158015610f3e57600080fd5b505af4158015610f52573d6000803e3d6000fd5b5050604051633e3d089160e21b815273__$74ee30a61acd0006932adb7844f82c8730$__925063f8f422449150610f929060029085908a90600401611b09565b60006040518083038186803b158015610faa57600080fd5b505af4158015610fbe573d6000803e3d6000fd5b5050506000878152600860209081526040808320338085526006909101835292819020805460ff191660011790555187815291925088917f9d0e349d85ace310338412a1a46ccb4f32a9778a723706dd340ac66c14ede8b7910160405180910390a3505050505050565b60008061103584876113fd565b8310159050600061104685876113fd565b84111580611052575085155b905081801561105e5750805b979650505050505050565b60008115801590610b83575050600754101590565b84831461108a57600080fd5b84811461109657600080fd5b60005b85811015611114576111028787838181106110b6576110b6611a62565b905060200201358686848181106110cf576110cf611a62565b90506020020160208101906110e49190611b3f565b8585858181106110f6576110f6611a62565b90506020020135610509565b8061110c81611a49565b915050611099565b50505050505050565b600081815260086020526040902060020154421161113a57600080fd5b33600090815260036020526040908190209051631b352dd160e11b815260048101919091526024810182905273__$ee8ca919bc4d47201a12ba3dd017c700b5$__9063366a5ba290604401602060405180830381865af41580156111a2573d6000803e3d6000fd5b505050506040513d601f19601f820116820180604052508101906111c69190611aa2565b6111cf57600080fd5b336000908152600360205260409081902090516306d900ed60e41b815260048101919091526024810182905273__$ee8ca919bc4d47201a12ba3dd017c700b5$__90636d900ed09060440160006040518083038186803b15801561123257600080fd5b505af4158015611246573d6000803e3d6000fd5b50506040513392508391507f3e37bcb7be4bf870f00e44af451399ed9ac123bb543f26f2e66ab6cdd541345690600090a350565b6040516bffffffffffffffffffffffff19606084901b1660208201526034810182905260009060540160405160208183030381529060405280519060200120905092915050565b6000546040516323b872dd60e01b8152336004820152306024820152604481018390526001600160a01b03909116906323b872dd906064016020604051808303816000875af1158015611318573d6000803e3d6000fd5b505050506040513d601f19601f8201168201806040525081019061133c9190611aa2565b61134557600080fd5b3360009081526009602052604081208054839290611364908490611a1d565b909155505060405181815233907fb6a1aee425eacc6529fdc96be6b10cb073a7feb197b411868f5ff544fe75340d9060200160405180910390a250565b6000818152600860205260408120600101544211610bc2565b60005b818110156113f8576113e68383838181106113da576113da611a62565b9050602002013561111d565b806113f081611a49565b9150506113bd565b505050565b600073__$74ee30a61acd0006932adb7844f82c8730$__6350389f5c6002611425868661127a565b6040518363ffffffff1660e01b8152600401611442929190611b5a565b602060405180830381865af415801561145f573d6000803e3d6000fd5b505050506040513d601f19601f820116820180604052508101906108f79190611a30565b600073__$74ee30a61acd0006932adb7844f82c8730$__6350389f5c60026114ab868661127a565b6040518363ffffffff1660e01b8152600401611442929190611b97565b60006114d333610c26565b336000908152600960205260409020546114ed9190611a8f565b9050818110156114fc57600080fd5b336000908152600960205260408120805484929061151b908490611a8f565b909155505060005460405163a9059cbb60e01b8152336004820152602481018490526001600160a01b039091169063a9059cbb906044016020604051808303816000875af1158015611571573d6000803e3d6000fd5b505050506040513d601f19601f820116820180604052508101906115959190611aa2565b61159e57600080fd5b60405182815233907fe7557a1414e40a9926e2cf7449164ad118e4f82b28e5f8fcc4c3cd7c46f8f3489060200160405180910390a25050565b60006115e282611069565b6115eb57600080fd5b6000828152600860205260409020600201544211610b83565b61160d82611069565b61162a57604051638acdc76560e01b815260040160405180910390fd5b611633826113a1565b61165057604051631fcac24760e31b815260040160405180910390fd5b600081900361167257604051630b9e91c760e11b815260040160405180910390fd5b5050565b60006020828403121561168857600080fd5b5035919050565b80356002811061050457600080fd5b6000806000606084860312156116b357600080fd5b833592506116c36020850161168f565b9150604084013590509250925092565b80356001600160a01b038116811461050457600080fd5b6000806000606084860312156116ff57600080fd5b611708846116d3565b95602085013595506040909401359392505050565b60006020828403121561172f57600080fd5b6108f7826116d3565b60008083601f84011261174a57600080fd5b50813567ffffffffffffffff81111561176257600080fd5b6020830191508360208260051b850101111561177d57600080fd5b9250929050565b6000806000806000806000806080898b0312156117a057600080fd5b883567ffffffffffffffff808211156117b857600080fd5b6117c48c838d01611738565b909a50985060208b01359150808211156117dd57600080fd5b6117e98c838d01611738565b909850965060408b013591508082111561180257600080fd5b61180e8c838d01611738565b909650945060608b013591508082111561182757600080fd5b506118348b828c01611738565b999c989b5096995094979396929594505050565b6000806000806080858703121561185e57600080fd5b5050823594602084013594506040840135936060013592509050565b6000806000806080858703121561189057600080fd5b84359350602085013592506118a7604086016116d3565b9396929550929360600135925050565b600080600080600080606087890312156118d057600080fd5b863567ffffffffffffffff808211156118e857600080fd5b6118f48a838b01611738565b9098509650602089013591508082111561190d57600080fd5b6119198a838b01611738565b9096509450604089013591508082111561193257600080fd5b5061193f89828a01611738565b979a9699509497509295939492505050565b6000806040838503121561196457600080fd5b61196d836116d3565b946020939093013593505050565b6000806020838503121561198e57600080fd5b823567ffffffffffffffff8111156119a557600080fd5b6119b185828601611738565b90969095509350505050565b634e487b7160e01b600052602160045260246000fd5b6000600284106119f357634e487b7160e01b600052602160045260246000fd5b5060f89290921b8252600182015260210190565b634e487b7160e01b600052601160045260246000fd5b80820180821115610b8357610b83611a07565b600060208284031215611a4257600080fd5b5051919050565b600060018201611a5b57611a5b611a07565b5060010190565b634e487b7160e01b600052603260045260246000fd5b8082028115828204841417610b8357610b83611a07565b81810381811115610b8357610b83611a07565b600060208284031215611ab457600080fd5b815180151581146108f757600080fd5b838152826020820152608060408201526000611af96080830160098152686e756d546f6b656e7360b81b602082015260400190565b9050826060830152949350505050565b838152826020820152608060408201526000611af960808301600a8152690c6dedadad2e890c2e6d60b31b602082015260400190565b600060208284031215611b5157600080fd5b6108f78261168f565b828152816020820152606060408201526000611b8f6060830160098152686e756d546f6b656e7360b81b602082015260400190565b949350505050565b828152816020820152606060408201526000611b8f60608301600a8152690c6dedadad2e890c2e6d60b31b60208201526040019056fea26469706673582212204d4d57b00996dfd818a4f4e7873aca9d63e5c17c889cd6a0d3e113f527017b0264736f6c63430008130033",
        "linkReferences": {
            "src/lib/AttributeStore.sol": {
                "AttributeStore": [
                    {
                        "start": 4055,
                        "length": 20
                    },
                    {
                        "start": 4161,
                        "length": 20
                    },
                    {
                        "start": 5343,
                        "length": 20
                    },
                    {
                        "start": 5477,
                        "length": 20
                    }
                ]
            },
            "src/lib/DLL.sol": {
                "DLL": [
                    {
                        "start": 1841,
                        "length": 20
                    },
                    {
                        "start": 2252,
                        "length": 20
                    },
                    {
                        "start": 2412,
                        "length": 20
                    },
                    {
                        "start": 3075,
                        "length": 20
                    },
                    {
                        "start": 3473,
                        "length": 20
                    },
                    {
                        "start": 3621,
                        "length": 20
                    },
                    {
                        "start": 3770,
                        "length": 20
                    },
                    {
                        "start": 3948,
                        "length": 20
                    },
                    {
                        "start": 4678,
                        "length": 20
                    },
                    {
                        "start": 4827,
                        "length": 20
                    }
                ]
            }
        }
    },
    "methodIdentifiers": {
        "attrUUID(address,uint256)": "a1103f37",
        "commitDuration()": "6f833811",
        "commitPeriodActive(uint256)": "a4439dc5",
        "commitVote(uint256,bytes32,uint256,uint256)": "6cbf9c5e",
        "commitVotes(uint256[],bytes32[],uint256[],uint256[])": "3ec36b99",
        "getCommitHash(address,uint256)": "d901402b",
        "getInsertPointForNumTokens(address,uint256,uint256)": "2c052031",
        "getLastNode(address)": "427fa1d2",
        "getLockedTokens(address)": "6b2d95d4",
        "getNumTokens(address,uint256)": "d1382092",
        "getTotalNumberOfTokensForWinningOption(uint256)": "053e71a6",
        "isExpired(uint256)": "d9548e53",
        "isPassed(uint256)": "49403183",
        "minQuorum()": "b5a127e5",
        "pollEnded(uint256)": "ee684830",
        "pollExists(uint256)": "88d21ff3",
        "pollId()": "6f13ab00",
        "polls(uint256)": "ac2f0074",
        "registry()": "7b103999",
        "requestVotingRights(uint256)": "a25236fe",
        "rescueTokens(uint256)": "97603560",
        "rescueTokensInMultiplePolls(uint256[])": "bb11ed7e",
        "revealDuration()": "886a6de1",
        "revealPeriodActive(uint256)": "441c77c0",
        "revealVote(uint256,uint8,uint256)": "0f111324",
        "revealVotes(uint256[],uint8[],uint256[])": "8c557431",
        "startPoll(bytes32)": "2c28d809",
        "token()": "fc0c546a",
        "validPosition(uint256,uint256,address,uint256)": "819b0293",
        "voteTokenBalance(address)": "3b930294",
        "withdrawVotingRights(uint256)": "e7b1d43c"
    },
    "id": 22
}